:020000040040BA
:10000000188D00208D314000713240007132400067
:100010007132400071324000713240000000000037
:1000200000000000000000000000000071324000ED
:100030007132400000000000713240007132400017
:100040007132400071324000713240007132400024
:1000500071324000713240007132400000000000F7
:10006000713240007132400000000000190340006E
:100070003D0340000000000099294000713240001B
:1000800000000000000000007132400071324000AA
:100090007132400071324000713240008D274000C3
:1000A000713240007132400000000000000000008A
:1000B0000000000071324000713240007132400097
:1000C00071324000713240007132400010B5054C71
:1000D000237833B9044B13B10448AFF300800123F4
:1000E000237010BDC0090020000000009C9D40004E
:1000F0000C4B43B10C480D4910B5AFF300800C48D0
:10010000036823B910BD0A48036833B97047094B27
:10011000002BF7D0BDE810401847064B002BF5D058
:10012000184700BF000000009C9D4000C40900204B
:100130009C9D40000000000090B585B000AF786045
:100140003960374C7C447868364BE3589847F86000
:100150007868354BE35898470246FB681340FB60CC
:10016000FB68002B48D00023BB6040E02F4B7B4452
:100170001A46BB681B0113441A683B689A4230D187
:100180002B4B7B441A46BB681B01134404331A688B
:10019000FB681340002B24D0264B7B441A46BB68D7
:1001A0001B0113440C331B68234A7A441146BA6876
:1001B00012010A441068214A7A441146BA681201B1
:1001C0000A4404321268114698471D4B7B441A4674
:1001D000BB681B01134404331B68DB43FA681340FC
:1001E000FB60BB680133BB60BB68062B03D8FB68B0
:1001F000002BBBD100E000BF124BE3581B68002B63
:1002000009D0114B7B441B68002B04D00F4B7B445F
:100210001B687868984700BF1437BD4690BD00BF83
:10022000549C0000A4010000D40100006A08C01F13
:100230005608C01F3E08C01F2E08C01F2008C01F40
:100240000C08C01FE00000004808C01F3E08C01F87
:1002500090B587B000AFF860B9607A603B60264C1B
:100260007C44264B7B441B68062B01D901233EE0CE
:100270000023FB7512E0FB7D1B01214A7A441344E5
:100280003B613B691A68BB689A4204D13B695A6872
:100290007B689A4209D0FB7D0133FB75FA7D194BCF
:1002A0007B441B689A42E6D900E000BF3B69BA680C
:1002B0001A603B697A685A603B693A689A603B69A0
:1002C000BA6ADA60FA7D104B7B441B6801339A42AC
:1002D00006D10E4B7B441B6801330D4A7A441360F0
:1002E0003A687968F8680B4BE3589847002318463A
:1002F0001C37BD4690BD00BF389B0000E407C01FFF
:100300005C07C01FA807C01F8007C01F7407C01F5D
:100310006C07C01F2C02000080B500AF054A7A446C
:100320000B210348044BD358984700BF80BD00BF42
:10033000000E0E407A9A0000B400000080B500AFB5
:10034000054A7A440C210348044BD358984700BF10
:1003500080BD00BF00100E40569A0000B40000009F
:1003600080B487B000AFF860B9607A60FA68BB68A3
:100370009B0113447B617B6902221A607B694FF009
:10038000FF329A627B691B6A7B697A685A6000BF98
:100390001C37BD4680BC704780B483B000AF786026
:1003A00039607A683B689B01134405221A6000BFDC
:1003B0000C37BD4680BC704780B485B000AFF86094
:1003C000B9607A60FA68BB689B0113441C337A6891
:1003D0001A6000BF1437BD4680BC704780B487B038
:1003E00000AFF860B9607A60FA68BB689B0113449B
:1003F0007B617B697A685A6200BF1C37BD4680BC4E
:10040000704780B485B000AF786039607A683B6827
:100410009B011344FB60FB681B6A18461437BD46FA
:1004200080BC704780B48DB000AFF860B9607A606E
:100430003B6002233B6108237B612023BB61802357
:10044000FB61BB6BDB0B3B620023FB621AE0FB6AC8
:100450009B0007F13002134453F8203CBA68B2FB0A
:10046000F3F3BB62BB6A1B0C7B62FA68BB6A9A42FD
:1004700001D9002323E0FA687B6A9A4206D2FB6A1C
:100480000133FB62FB6A042BE1D900E000BFFB6A89
:10049000042B01D9002312E07B68002B08D0FB6AF3
:1004A0009B0007F13002134453F8202C7B681A603C
:1004B0003B68002B02D03B68FA6A1A600123184699
:1004C0003437BD4680BC704780B483B000AF7860DD
:1004D0007B6808221A607B6820221A607B680422ED
:1004E0001A6000BF0C37BD4680BC704790B585B020
:1004F00000AF78603960164C7C440023FB607B6859
:100500004FF0FF329A627B681B6A7868114BE358A0
:1005100098477868104BE35898473B6859683B68A0
:100520001B681A4678680D4BE35898470346012B21
:1005300001D10123FB603B685B7A012B02D17B6810
:1005400040221A60FB6818461437BD4690BD00BFB4
:10055000A098000058010000540100000C020000A7
:1005600080B489B000AFF860B9607A600023FB61A5
:10057000BB68344A934201D901235DE0BB68324A2B
:10058000934237D97B68314AA2FB03239B0B043B80
:100590007B61BA682E4B13449B007A68B2FBF3F37D
:1005A000043B3B6105E0FB690133FB617B695B0850
:1005B0007B617B69FF2B09D9FB69062BF3D905E029
:1005C000FB690133FB613B695B083B613B69FF2BC6
:1005D00002D9FB69062BF3D97B69DAB23B691B02AE
:1005E0009BB21A43FB691B0403F4E0231A43FB6824
:1005F0001A6120E0BB685B007A68B2FBF3F3043B4E
:10060000BB6105E0FB690133FB61BB695B08BB6152
:10061000BB69FF2B02D9FB69062BF3D9BB69DAB2A0
:10062000BB691B029BB21A43FB691B0403F4E02362
:100630001A43FB681A61002318462437BD4680BC64
:10064000704700BF801A060000DC0500F11976052E
:100650000012FD3F80B485B000AF786039603B6820
:10066000002B01D100231DE07B681B78FB603B68F9
:10067000012B09DDFB681B02FB607B6801331B78E3
:100680001A46FB681343FB603B68022B09DDFB68DD
:100690001B02FB607B6802331B781A46FB6813431E
:1006A000FB60FB6818461437BD4680BC70470000ED
:1006B00080B588B000AF78603960404A7A443B68C2
:1006C000DB68FB613B689B68BB610023FB7547F2FD
:1006D00030533B61FB69002B01D1012369E07B684A
:1006E000002159603B681B7C1B0403F4FE013B683E
:1006F0005B681B0203F440730B4343F480517B6837
:1007000059607B680021D96038683B685B6819468E
:100710002B4BD358984702467B68DA60FB69012B64
:1007200005D17B6803221A600123FB7534E07B68E6
:1007300001221A600023FB752EE07B681B6AFB60B8
:10074000FB6803F48073002B01D0052331E03B6983
:100750005A1E3A61002B01D109232AE0FB69012BC3
:1007600007D1FB7D002B04D17B6802221A60012394
:10077000FB75FB6803F00203002B00D10CE0BB69A2
:100780005A1CBA617A68126BD2B21A70FB69013BCB
:10079000FB6147F230533B61FB69002BCDD100BFB9
:1007A0007B681B6A03F00103002BF9D07B681B6A8E
:1007B000002318462037BD4680BD00BFDC960000F0
:1007C0007C01000080B586B000AF78603960344AA3
:1007D0007A443B68DB687B613B689B683B617B6973
:1007E000002B01D1012356E07B68002159603B6852
:1007F0001B7C1B0403F4FE013B685B681B0203F4D3
:10080000407319437B6859607B680021D960386860
:100810003B685B681946234BD358984702467B6870
:10082000DA6019E07B681B6AFB60FB6803F4807385
:10083000002B01D005232EE0FB6803F00403002BFE
:1008400000D109E03B695A1C3A611B781A467B6863
:100850005A637B69013B7B617B69002BE2D17B683A
:100860001B6AFB60FB6803F48073002B01D0052337
:1008700011E0FB6803F00403002B00D1EFE700BF99
:100880007B6802221A6000BF7B681B6A03F00103C9
:10089000002BF9D0002318461837BD4680BD00BF95
:1008A000C89500007C01000080B483B000AF786080
:1008B0007B6880221A607B681B6B00BF0C37BD46CB
:1008C00080BC704780B489B000AFF860B9607A60CE
:1008D000BB681A017B689A4202D81023FB6101E0D1
:1008E0000823FB617B68DA00FB69B96801FB03F34D
:1008F0005B081A44FB69B96801FB03F3B2FBF3F32D
:10090000BB61BB69DB087B61BB6903F007033B612B
:100910007B69002B03D07B69B3F5803F01D30123B2
:100920000FE0FB69082B05D1FB685B6843F40022EC
:10093000FB685A603B691A047B691A43FB681A62B8
:10094000002318462437BD4680BC704790B583B05D
:1009500000AF7860134C7C447868134BE358984799
:100960007B6800225A607B6800225A627B68002202
:100970009A6278680D4BE358984778680C4BE358B7
:10098000984778680B4BE358984778680A4BE358C8
:1009900098477868094BE358984700BF0C37BD4625
:1009A00090BD00BF429400001800000094000000B9
:1009B0006C01000010020000E00100003C0100009A
:1009C00090B585B000AFF860B9607A601F4C7C4488
:1009D000F8681F4BE35898471E4B7B441A46002388
:1009E0001360BB68002B0AD0BB681B687A68194685
:1009F000F868194BE35898470346002B01D00123B0
:100A000020E0BB685A68BB689B681A43BB681B69D7
:100A10001A43BB68DB681A43104B7B441B681343C3
:100A20000F4A7A4413600F4B7B441B680E4A7A448A
:100A30001360FB685A680D4B7B441B681A43FB68C4
:100A40005A60002318461437BD4690BDCA93000073
:100A5000000100007600C01F280200003600C01F01
:100A60002E00C01F2800C01F2200C01F1800C01F7A
:100A700090B585B000AFF860B9607A600C4C7C44EA
:100A80007A68B968F8680B4BE35898470346002B1F
:100A900001D0012308E0FB685B6823F00F0343F0FB
:100AA0000202FB685A60002318461437BD4690BD09
:100AB0001A9300002401000080B483B000AF786076
:100AC0007B6840221A6000BF0C37BD4680BC70476F
:100AD00080B483B000AF78607B6888221A6000BF62
:100AE0000C37BD4680BC704780B483B000AF7860DF
:100AF0007B6810221A6000BF0C37BD4680BC70476F
:100B000080B483B000AF78607B6824221A6000BF95
:100B10000C37BD4680BC704780B483B000AF7860AE
:100B200039607B683A689A6000BF0C37BD4680BC6C
:100B3000704780B483B000AF786039607B683A68F2
:100B4000DA6000BF0C37BD4680BC704780B483B00C
:100B500000AF78607B685B6918460C37BD4680BC87
:100B6000704780B483B000AF78607B684FF48072C8
:100B70001A6000BF0C37BD4680BC704780B483B09C
:100B800000AF78607B684FF400321A6000BF0C370A
:100B9000BD4680BC704780B483B000AF78607B688E
:100BA0004FF400221A6000BF0C37BD4680BC70476E
:100BB00080B483B000AF7860396000BF7B685B6948
:100BC00003F00203002BF9D03B68C3F308027B68F3
:100BD000DA61002318460C37BD4680BC7047000020
:100BE00090B583B000AF786039600A4C7C4408E06F
:100BF0003B685A1C3A601B7819467868064BE358E4
:100C000098473B681B78002BF2D100BF0C37BD46DC
:100C100090BD00BFAC9100004402000080B483B0DE
:100C200000AF786039607B685B6903F00103002BDB
:100C300001D1012306E07B689B69C3F308023B688E
:100C40001A60002318460C37BD4680BC7047000070
:100C500080B483B000AF78607B68044AC3F8E420B6
:100C600000BF0C37BD4680BC704700BF00415355E4
:100C700080B483B000AF78607B684FF400425A6064
:100C800000BF0C37BD4680BC7047000080B582B005
:100C900000AF7860214B7B447A68072A3AD802A1DA
:100CA00051F82220114408476B0000002100000089
:100CB0002B000000350000003F000000490000004C
:100CC000530000005F0000000020154A9B58984721
:100CD00020E00120124A9B5898471BE00020114A4F
:100CE0009B58984716E010200E4A9B58984711E0F1
:100CF00020200C4A9B5898470CE03E2100200A4ACD
:100D00009B58984706E03E210120074A9B58984788
:100D100000E000BF00BF0837BD4680BD0291000063
:100D200094010000140000002C00000080B582B087
:100D300000AF78601A4B7B447A68072A2AD802A150
:100D400051F822201144084721000000250000002E
:100D500025000000390000003900000039000000C3
:100D60003900000039000000012314E00D4A9B58AF
:100D700098470346002B14BF01230023DBB20AE08F
:100D8000094A9B5898470346002B14BF01230023B0
:100D9000DBB200E0002318460837BD4680BD00BF27
:100DA000629000003C0000003001000080B483B07D
:100DB00000AF78607B68072B27D802A252F8233057
:100DC0001A44104721000000270000002D000000F9
:100DD00033000000370000003B0000003F0000002F
:100DE000430000004FF4FA4310E04FF400430DE0DD
:100DF0004FF400430AE0084B08E0084B06E0084BBC
:100E000004E0074B02E0064B00E0002318460C37D5
:100E1000BD4680BC704700BF00093D0000127A004B
:100E2000001BB70080B582B000AF0346FB7100BF66
:100E3000FB791846064B7B449847034683F0010331
:100E4000DBB2002BF4D100BF0837BD4680BD00BF28
:100E5000F3FEFFFF80B586B000AFF8607A603B60BC
:100E60000B46FB72FB7A18460F4B7B4498470246B1
:100E70007B68B2FBF3F37B617B693A6802FB03F3A7
:100E80007B613B68013B1A04064B13407A68D2B27F
:100E9000134343F47C52FB681A6000BF1837BD4609
:100EA00080BD00BF0000FF073FFFFFFF80B582B09D
:100EB00000AF786039600E4B7B443A68002A09D154
:100EC0000C4A9B589847094A7B681B6843F00053BB
:100ED000936206E0084A9B589847044A7B681B685F
:100EE000D36200BF0837BD4680BD00BF00040E407E
:100EF000E08E000034000000A000000080B582B049
:100F000000AF7860084B7B447A68002A04D1074A16
:100F10009B589847034603E0054A9B589847034669
:100F200018460837BD4680BD928E0000340100008F
:100F30000802000080B582B000AF0346FB71FB7968
:100F4000033B042B0AD8FB791846074B7B44984790
:100F5000FB791846054B7B44984700E000BF00BF73
:100F60000837BD4680BD00BF3DFDFFFFCBFEFFFF44
:100F700080B582B000AF786000BF7868054B7B44D5
:100F800098470346002BF8D0002318460837BD4683
:100F900080BD00BF7BFFFFFF80B500AF0620054B83
:100FA0007B449847024613469B0013449B00184617
:100FB00080BD00BF09FEFFFF80B500AF034B7B443F
:100FC000984703465B08184680BD00BFD7FFFFFF68
:100FD000B0B582B000AF184C7C441648174BE358AC
:100FE00098470620164B7B449847381D142301224E
:100FF0000621144D7D44A8473B1D00211846124B85
:101000007B4498470020114B7B4498471020104B9D
:10101000E35898470F4BE35898470F4B7B4498474A
:1010200003461846054BE358984700BF0837BD46AE
:10103000B0BD00BF000E2707C08D00006400000097
:101040004BFFFFFF5DFEFFFFA9FEFFFF65FFFFFFF8
:10105000EC0100000402000099FFFFFF80B485B09E
:1010600000AFF860B9607A607B68002B03D0FB6842
:10107000BA685A6602E0FB68BA681A6600BF14379D
:10108000BD4680BC704780B485B000AFF860B960E1
:101090007A60FB68BA68C3F884207B685B004FF411
:1010A0000042B2FBF3F3013BC3F30D02FB68C3F84C
:1010B0008C2000BF1437BD4680BC704780B487B019
:1010C00000AFF860B9607A60FB687A685A64BB6800
:1010D000B3F1C05F4AD0B3F1C05F08D8B3F1006F7D
:1010E00016D0B3F1805F2CD0002B69D064E0B3F14F
:1010F000205F65D0B3F1205F03D8B3F1005F4AD021
:101100005AE0B3F1405F5BD0B3F1605F58D053E079
:10111000FB681B6F7B61FB681A6F7B68D9437B6937
:101120000B401A40FB681A67FB685B6F7B61FB68CA
:101130005A6F7B68D9437B690B401A40FB685A673A
:101140003AE0FB681B6F7B617A687B691A43FB6836
:101150001A67FB685B6F7B61FB685A6F7B68D943DA
:101160007B690B401A40FB685A6725E0FB681B6FE0
:101170007B61FB681A6F7B68D9437B690B401A401F
:10118000FB681A67FB685B6F7B617A687B691A434F
:10119000FB685A6710E0FB681B6F7B617A687B69AC
:1011A0001A43FB681A67FB685B6F7B617A687B692F
:1011B0001A43FB685A6700BFFB687A685A6000E010
:1011C00000BF1C37BD4680BC7047000090B585B09D
:1011D00000AFF860B9607A601C4C7C44B968F8686C
:1011E0001B4BE35898477B6803F001031A46B96824
:1011F000F868184BE35898477B6803F00A03002B04
:1012000003D0FB68BA681A6202E0FB68BA685A62E7
:101210007B6803F00203002B04D0FB68BA68C3F8B4
:10122000802008E07B6803F00803002B03D0FB68F4
:10123000BA68C3F88420FB68BA685A61FB68BA6868
:101240001A6000BF1437BD4690BD00BFBE8B0000C2
:10125000D4000000D800000090B585B000AFF86061
:10126000B9607A603B60154C7C44B968F868144BEF
:10127000E35898473A6AB968F868124BE3589847B8
:101280003B68002B03D0FB68BA681A6502E0FB6874
:10129000BA685A657B68002B03D0FB68BA681A638A
:1012A00002E0FB68BA685A63FB68BA681A61FB68B7
:1012B000BA681A6000BF1437BD4690BD308B00007D
:1012C000D4000000D800000080B485B000AFF86002
:1012D000B9607A607B6803F01003002B20D0FB68B4
:1012E000BA68C3F8B0207B6803F02003002B04D059
:1012F000FB68BA68C3F8D42003E0FB68BA68C3F897
:10130000D0207B6803F04003002B04D0FB68BA6850
:10131000C3F8C02008E0FB68BA68C3F8C42003E043
:10132000FB68BA68C3F8B42000BF1437BD4680BC60
:10133000704780B483B000AF786039607B683A68EA
:101340001A6400BF0C37BD4680BC704780B483B0C0
:1013500000AF786039607B683A685A6400BF0C3728
:10136000BD4680BC704780B483B000AF78607B68B6
:10137000DB6C18460C37BD4680BC704780B483B028
:1013800000AF78607B689B6C18460C37BD4680BC0C
:101390007047000080B584B000AF7860094A7A4495
:1013A0007868094BD3589847F8607B6803F01F03AF
:1013B000012202FA03F31A46FB681A6300BF1037D2
:1013C000BD4680BDFA89000010000000B0B586B0AF
:1013D00002AF786039606B4C7C4478686A4BE358A4
:1013E0009847F8603B6803F0F043B3F1005F6FD0BB
:1013F000B3F1005F09D8B3F1805F2FD0B3F1C05FC4
:1014000049D0B3F1006F0CD0B5E0B3F1405F00F00C
:101410008980B3F1605F00F08580B3F1205F74D004
:10142000A9E07B6803F01F03012202FA03F31A46C6
:101430004FF00061F868554BE35898477B6803F01C
:101440001F03012202FA03F319463B6803F001036C
:101450001A46F8684E4BE35898478EE07B6803F0D5
:101460001F03012202FA03F31A464FF08051F86875
:10147000464BE35898477B6803F01F03012202FAAA
:1014800003F319463B6803F001031A46F868404B22
:10149000E358984771E07B6803F01F03012202FACA
:1014A00003F31A464FF0C051F868384BE358984799
:1014B0007B6803F01F03012202FA03F319463B681D
:1014C00003F001031A46F868314BE358984754E09B
:1014D0007B6803F01F03012202FA03F31A464FF060
:1014E0000051F868294BE35898477B6803F01F03C5
:1014F000012202FA03F319463B6803F001031A467E
:10150000F868234BE358984737E07B6803F01F03E4
:10151000012202FA03F33A681946F8681D4BE358B2
:1015200098472AE07B6803F01F03012202FA03F3C5
:1015300019463B6803F06053B3F1605F0CBF0123B1
:101540000023DBB21A463B6803F00403002B14BFF0
:1015500001230023DBB218463B6803F00103002B94
:1015600014BF01230023DBB200930346F8680A4D41
:101570006459A04701E0002300E00123184610371A
:10158000BD46B0BDC089000010000000880000000A
:10159000D80000000C010000C400000080B485B039
:1015A00000AF78607B685B0903F5001303F20773F3
:1015B0005B02FB60FB6818461437BD4680BC704771
:1015C00080B483B000AF7860094A7A447B68D3F86E
:1015D000503143F001017B68C3F85011054BD358DB
:1015E0001A460123136000BF0C37BD4680BC70470C
:1015F000CE870000E000000080B483B000AF7860C8
:10160000094A7A447B68D3F8503123F001017B68A2
:10161000C3F85011054BD3581A460023136000BF7E
:101620000C37BD4680BC704796870000E000000084
:1016300080B485B000AF78601C491C4B1B6B23F055
:1016400070027B6813430B634FF40063FB6007E099
:10165000FB68002B01D1012323E0FB68013BFB6009
:10166000124B9B6E03F00803002BF1D00F4A0F4B77
:101670001B6B23F0030343F0020313634FF4006377
:10168000FB6007E0FB68002B01D1012309E0FB6848
:10169000013BFB60054B9B6E03F00803002BF1D070
:1016A000002318461437BD4680BC704700040E4026
:1016B00080B483B000AF78607B68012B07D1084A03
:1016C000074B9B6843F0254343F480139360044B1E
:1016D000044A1A6000BF0C37BD4680BC704700BF8B
:1016E00010140E40080000A580B400AF094B5B69E0
:1016F00003F08003002B07D0074B9B6E03F08003A1
:10170000002B01D0012300E000231846BD4680BC19
:10171000704700BF10140E4000040E4080B483B028
:1017200000AF7860184A184B1B6A43F45C1343F00F
:101730000803136200BF144B9B6E03F40033002BAD
:10174000F9D01149104B1B6A23F45C1323F070038A
:101750007A68134343F45C130B6200BF0A4B9B6E21
:1017600003F40033002BF9D0074A074B1B6A23F020
:101770009B7323F4803343F45C13136200BF0C3774
:10178000BD4680BC704700BF00040E4080B483B0EB
:1017900000AF786039607B68002B08D01649164B83
:1017A0001B6A164A1A40164B13430B621EE012497D
:1017B000114B1B6A23F45C1323F003033A681202F3
:1017C00092B2134343F45C1343F001030B6200BF76
:1017D000094B9B6E03F00103002BF9D0064A064B20
:1017E0001B6A43F09B7343F48033136200BF0C37D2
:1017F000BD4680BC704700BF00040E40FCFFC8FE21
:101800000200370180B400AF034B9B6E03F48033BA
:101810001846BD4680BC704700040E4080B400AF3F
:10182000034B4FF000529A6200BFBD4680BC704728
:1018300000040E4080B400AF034B9B6E03F0020324
:101840001846BD4680BC704700040E4080B584B089
:1018500000AFF860B9607A60104A7A44104BD358F0
:1018600098470C487B68DAB2BB681B0203F47C53D0
:101870001A43FB681904084B0B401343C36200BFB3
:10188000044B9B6E03F00403002BF9D000BF10370C
:10189000BD4680BD00040E400000FF073E850000ED
:1018A000A000000080B400AF034B0022DA6200BF4A
:1018B000BD4680BC704700BF00040E4080B400AF3E
:1018C000034B9B6E03F004031846BD4680BC704773
:1018D00000040E4080B483B000AF78607B68222B98
:1018E00001D901232FE07B681F2B13D8184B9A696D
:1018F00001217B6801FA03F31A4001217B6801FA98
:1019000003F39A421ED0124A01217B6801FA03F3C5
:10191000136117E07B68203B7B600D4BD3F80821F7
:1019200001217B6801FA03F31A4001217B6801FA67
:1019300003F39A4206D0064A01217B6801FA03F3B9
:10194000C2F80031002318460C37BD4680BC7047F2
:1019500000040E4080B483B000AF0346FB71084919
:1019600097F907305B09FA7902F01F02012000FAAB
:1019700002F241F8232000BF0C37BD4680BC7047FF
:1019800000E100E080B483B000AF0346FB71094979
:1019900097F907305B09FA7902F01F02012000FA7B
:1019A00002F2203341F8232000BF0C37BD4680BC33
:1019B000704700BF00E100E080B483B000AF034691
:1019C000FB71094997F907305B09FA7902F01F02A8
:1019D000012000FA02F2603341F8232000BF0C37E7
:1019E000BD4680BC704700BF00E100E080B483B01A
:1019F00000AF03463960FB7197F90730002B0BDA13
:101A00000D49FB7903F00F03043B3A68D2B212018F
:101A1000D2B20B441A7609E0084997F907303A68C0
:101A2000D2B21201D2B20B4483F8002300BF0C37AC
:101A3000BD4680BC704700BF00ED00E000E100E063
:101A400080B483B000AF78607B68072B27D802A2F0
:101A500052F823301A4410472100000027000000EC
:101A60002D00000033000000370000003B000000A4
:101A70003F000000430000004FF4FA4310E04FF431
:101A800000430DE04FF400430AE0084B08E0084B28
:101A900006E0084B04E0074B02E0064B00E00023A1
:101AA00018460C37BD4680BC704700BF00093D009A
:101AB00000127A00001BB70080B500AF0620054B6E
:101AC0007B449847024613469B0013449B001846EC
:101AD00080BD00BF7DFFFFFF80B500AF034B7B449F
:101AE000984703465B08184680BD00BFD7FFFFFF3D
:101AF00080B483B000AF78603960054A7A44054B02
:101B0000D35801221A7000BF0C37BD4680BC704705
:101B10009C82000080000000B0B582B002AF0B4C88
:101B20007C440B4BE35800934FF020534FF400429A
:101B30000B210548074D6459A0470B20064B7B44F9
:101B4000984700BFBD46B0BD000E0E407882000031
:101B5000640100005000000013FEFFFF98B500AFC5
:101B6000364C7C4432491820354BE358984730496D
:101B70001920334BE35898472D491A20304BE3582E
:101B800098472B491B202E4BE358984728491C2087
:101B90002B4BE358984726491D20294BE35898477B
:101BA00023491E20264BE358984721491F20244BE8
:101BB000E35898474FF080511120214BE358984744
:101BC000712110201E4BE358984771210F201C4BA8
:101BD000E35898474FF400324FF080511548194BA5
:101BE000E3589847184BE35898470B211148174B77
:101BF000E35898471420164BE358984701220121D7
:101C00000320144BE35898470B4B03225A640A4BAA
:101C10004FF400721A6000BF074B9B6803F4007317
:101C2000002BF9D00C4BE358984700BF98BD00BF7C
:101C300001000028000E0E4000040E403682000015
:101C4000680000008800000078010000F00000003B
:101C5000F40000004C000000E800000090B585B0E2
:101C600000AF1C4C7C444FF0006103201A4BE3583A
:101C700098474FF000610420174BE3589847132012
:101C8000164BE3589847164B7B44984703467B60B6
:101C90000E4BBB603B1D19460D48124BE35898474D
:101CA0001320114B7B4498471320104B7B449847DB
:101CB000002113200E4B7B44984713200D4B7B448F
:101CC000984700BF1437BD4690BD00BF801A06007C
:101CD00000800140348100006800000084010000A1
:101CE0004DFEFFFFDC000000DDFCFFFF09FDFFFFF4
:101CF00033FDFFFF93FCFFFF2DE9B04F82B000AF33
:101D0000364D7D4400BF3448354BEB589847034669
:101D1000012BF8D000213048324BEB589847012175
:101D20002D48304BEB58984702212B482D4BEB5850
:101D30009847032128482B4BEB5898472A4B7B4464
:101D40009847034619464FF000020B461446DB182D
:101D500044EB04045B1844EB0204200178607868CB
:101D600040EA137078601B013B60D7E900345B1ACE
:101D700064EB02044FEAC40B4BEA537B4FEAC30AFD
:101D800053465C465B1A64EB02044FEAC40949EA15
:101D900053794FEAC30843464C461946224643F25C
:101DA000AF634FF0000411EB030842EB0409404617
:101DB00049460E4BEB581C4643F2B0624FF000030D
:101DC000A04703460C461846094BEB58984700BFFE
:101DD0000837BD46BDE8B08F008001409680000006
:101DE000600100000000000097FDFFFF8C00000074
:101DF000B801000080B582B000AF786039601D4A3C
:101E00007A4438681C4BD35898477B68D3F85031D4
:101E100023F001027B68C3F850217B68D3F8583166
:101E200043F008027B68C3F858217B68D3F850312F
:101E300023F030027B68C3F850217B68D3F850311F
:101E400043F020027B68C3F850217B68D3F85031FF
:101E500023F400727B68C3F850217B68D3F85031BB
:101E600023F480627B68C3F8502100BF0837BD4669
:101E700080BD00BF987F00008401000080B485B061
:101E800000AFF860B9607A60FB68D3F86C31002B62
:101E900012D1FB68D3F87C31002B0DD1BA68FB68F6
:101EA000C3F86821FB687A68C3F86C21FB680122DB
:101EB000C3F8882101230FE0FB68D3F87C31002BA5
:101EC00009D1BA68FB68C3F87821FB687A68C3F85F
:101ED0007C21012300E0002318461437BD4680BC56
:101EE0007047000090B583B000AF2C4C7C440023B9
:101EF0007B6009E02A4BE3581A467B6813440022B2
:101F00001A707B6801337B607B6844F61F629342E2
:101F1000F0DD244BE3581A46214BE35813604FF48D
:101F200000411D48204BE358984700BF1F4BE35822
:101F30001B78DBB283F00103DBB2002BF6D14FF448
:101F4000004115481A4BE35898471348194BE3587A
:101F50009847144BE3581B6841F2883219460E48E3
:101F6000154BE358984700BF0B4BD3F8603103F093
:101F70000803082BF8D10848104BE35898470B4B3F
:101F8000E35800221A700E4BE35898470346184650
:101F90000C37BD4690BD00BF000E0E40AC7E000069
:101FA00048020000C8000000380200008000000065
:101FB000D400000040010000200100001C000000CF
:101FC000D001000080B483B000AF414B7B440022BD
:101FD000FA700022BA703F4A9A58002111703E4AA6
:101FE0009A58002111703D4A9A58114600220A6001
:101FF0003B4A9A58114600220A6001227A6038E072
:102000007A68013A374959588A5CFA70354A9A58C1
:1020100011467A680A441278BA70FA78FF2A25D1F4
:10202000BA78D82A09D17A68013A11462B4A9A58C7
:102030001160284A9A5801211170BA78D92A15D10D
:10204000244A9A581278D2B2002A0FD0234A9A58BA
:10205000126811467A688A4208D97A682049595824
:102060000A601D4A9A580121117007E07A6801320E
:102070007A607A6844F61F618A42C1D9184A9A5830
:102080001168164A9A5812688A1A174959580A60EC
:10209000154A9A581268002A11D00E4A9A58127896
:1020A000D2B282F00102D2B2002A08D10A4A9B5869
:1020B0001B78DBB283F00103DBB2002B01D00023DD
:1020C00000E0012318460C37BD4680BC704700BFB6
:1020D000CC7D0000B80000003402000020020000A7
:1020E0000C00000048020000F800000080B483B03B
:1020F00000AF78607B68072B27D802A252F8233004
:102100001A44104721000000270000002D000000A5
:1021100033000000370000003B0000003F000000DB
:10212000430000004FF4FA4310E04FF400430DE089
:102130004FF400430AE0084B08E0084B06E0084B68
:1021400004E0074B02E0064B00E0002318460C3782
:10215000BD4680BC704700BF00093D0000127A00F8
:10216000001BB70080B500AF0620054B7B449847A5
:10217000024613469B0013449B00184680BD00BFD7
:102180007DFFFFFF80B500AF034B7B4498470346BC
:102190005B08184680BD00BFD7FFFFFF90B58FB02A
:1021A00000AF78601A4C7C440023FB600023BB60C6
:1021B000302387F834300A2387F824300123BB62A8
:1021C00007F10C03FB6201233B6307F1240319466B
:1021D0007868104BE3589847302387F820300B235A
:1021E0003B7401237B6107F10803BB610123FB61A1
:1021F00007F1100319467868064BE3589847FB68C7
:102200001A02BB68134318463C37BD4690BD00BF59
:10221000F27B0000F801000090B58BB000AF786051
:102220001C4C7C4400233B610023FB601C233B755A
:102230000123BB61302387F8243007F11003FB61D1
:1022400001233B6207F1140319467868124BE358E7
:1022500098471D233B750123BB61302387F8243049
:1022600007F10C03FB6101233B6207F114031946DC
:102270007868094BE35898473B697F2B04D1FB688A
:10228000A22B01D1002300E0012318462C37BD46C4
:1022900090BD00BF767B0000F801000090B58BB0C8
:1022A00000AF78602A4C7C4400233B610023FB6034
:1022B0000023BB6001233B750123BB61302387F8FA
:1022C000243001233B6207F10C03FB6107F1140387
:1022D000194678681F4BE3589847AD23BB6007F158
:1022E0000803FB6107F11403194678681A4BE35899
:1022F000984707F11003FB6107F11403194678684A
:10230000144BE35898473A69BB689A4201D00123BD
:102310001AE007F10C03FB6107F114031946786812
:102320000D4BE358984707F11003FB6107F11403C5
:1023300019467868074BE35898473A69FB689A4210
:1023400001D0012300E0002318462C37BD4690BD84
:10235000F27A0000F80100000801000080B584B0A6
:1023600000AF78603960064A7A4439687868054B6E
:10237000D3589847F860FB6818461037BD4680BDB3
:10238000307A00002402000080B584B000AF78608D
:102390003960064A7A4439687868054BD3589847BB
:1023A000F860FB6818461037BD4680BD047A00000F
:1023B000700000002DE9F0498BB000AF7860396003
:1023C000DFF8CC80F84400237B623B683B6250E03E
:1023D0003B6A1B78FE2B2CD12E4B7B44984703463F
:1023E00019464FF000020B461446A60046EA9376C3
:1023F0009D002B4634465B1844EB020443F2AF6168
:102400004FF0000213EB010B44EB020C58466146FF
:10241000214B58F803301C4643F2B0624FF00003E2
:10242000A04703460C4618461C4B58F80330984703
:102430001CE03B6A1B783B720123FB6030233B7638
:1024400001237B613B6A01333B6107F108031946B5
:102450007868134B58F803309847F8617B6A01336A
:102460007B62FB69082B01D1FB690BE03B6A0233FD
:102470003B623B6A1B78FF2BAAD13B6A5B78FF2B40
:10248000A6D1002318462C37BD46BDE8F08900BF11
:10249000D4790000A7FDFFFF8C000000B801000008
:1024A0000801000090B58BB000AF78601F4C7C44F1
:1024B000012387F8233007F10C0300221A605A60C9
:1024C0009A60DA601A61FF233B7301233B6107F1D5
:1024D00023037B610123BB6130233B7707F10C03AE
:1024E00019467868124BE358984700237B62786856
:1024F000104B7B44984778627B6A1B0ADBB2262B21
:102500000FD178680C4B7B4498470346002B08D1C9
:1025100078680A4B7B4498470346002B01D100237F
:1025200000E0012318462C37BD4690BDEA78000034
:1025300008010000A7FCFFFF0FFDFFFF85FDFFFF67
:1025400080B584B000AF78600B46FB70434B7B4492
:102550000022FA60FA78112A70D802A151F82220DC
:1025600011440847490000005100000059000000D4
:1025700061000000690000007100000079000000A7
:102580008100000089000000910000009900000017
:10259000A1000000A9000000B1000000B900000087
:1025A000C1000000C9000000D10000002C4A9A5868
:1025B000FA6044E02B4A9A58FA6040E02A4A9A5856
:1025C000FA603CE0294A9A58FA6038E0284A9A585A
:1025D000FA6034E0274A9A58FA6030E0264A9A585E
:1025E000FA602CE0254A9A58FA6028E0244A9A5862
:1025F000FA6024E0234A9A58FA6020E0224A9A5866
:10260000FA601CE0214A9A58FA6018E0204A9A5869
:10261000FA6014E01F4A9A58FA6010E01E4A9A586D
:10262000FA600CE01D4A9A58FA6008E01C4A9A5871
:10263000FA6004E01B4A9A58FA6000E000BFFA68AA
:10264000002A06D0F9687868174A9B5898470023F3
:1026500000E0012318461037BD4680BD4A780000CF
:102660003801000008000000F401000044000000F0
:1026700070010000FC000000440100002800000080
:1026800048010000B40100002C010000900100008E
:102690009C000000AC000000DC010000B001000064
:1026A000EC000000140100004800000080B483B07A
:1026B00000AF0346FB71084997F907305B09FA79C7
:1026C00002F01F02012000FA02F241F8232000BFAD
:1026D0000C37BD4680BC704700E100E080B483B099
:1026E00000AF78607B68072B27D802A252F823300E
:1026F0001A44104721000000270000002D000000B0
:1027000033000000370000003B0000003F000000E5
:10271000430000004FF4FA4310E04FF400430DE093
:102720004FF400430AE0084B08E0084B06E0084B72
:1027300004E0074B02E0064B00E0002318460C378C
:10274000BD4680BC704700BF00093D0000127A0002
:10275000001BB70080B500AF0620054B7B449847AF
:10276000024613469B0013449B00184680BD00BFE1
:102770007DFFFFFF80B500AF034B7B4498470346C6
:102780005B08184680BD00BFD7FFFFFF90B583B040
:1027900000AF0E4C7C4400210B480D4BE35898478A
:1027A00078607B6803F01003002B08D0094BE358D6
:1027B0001B78DBB20133DAB2064BE3581A7000BF64
:1027C0000C37BD4690BD00BF0000014004760000FC
:1027D0000002000030020000B0B586B002AF1E4C0F
:1027E0007C441E4B7B449847F86017201C4BE358F1
:1027F0009847391D07F10802FB6800930B46F968FA
:102800000120184D6559A8477B6843F480431A4658
:1028100000211048144BE3589847BB68FA68B2FB94
:10282000F3F31A4600210B48104BE3589847172042
:102830000F4B7B4498471022002106480D4BE3586C
:102840009847002103480C4BE358984700BF1037C6
:10285000BD46B0BD00000140B87500008DFFFFFF10
:1028600084010000CC0000003C020000A801000030
:1028700077FEFFFF28010000A400000080B483B0B1
:1028800000AF0346FB71084997F907305B09FA79F5
:1028900002F01F02012000FA02F241F8232000BFDB
:1028A0000C37BD4680BC704700E100E080B483B0C7
:1028B00000AF78607B68072B27D802A252F823303C
:1028C0001A44104721000000270000002D000000DE
:1028D00033000000370000003B0000003F00000014
:1028E000430000004FF4FA4310E04FF400430DE0C2
:1028F0004FF400430AE0084B08E0084B06E0084BA1
:1029000004E0074B02E0064B00E0002318460C37BA
:10291000BD4680BC704700BF00093D0000127A0030
:10292000001BB70080B500AF0620054B7B449847DD
:10293000024613469B0013449B00184680BD00BF0F
:102940007DFFFFFF80B500AF034B7B4498470346F4
:102950005B08184680BD00BFD7FFFFFF80B500AF02
:10296000034B7B44984703465B08184680BD00BF75
:10297000BFFFFFFF80B582B000AF7860044A7A44A1
:102980007868044BD358984700BF0837BD4680BDD0
:102990001A7400008401000090B583B000AF124C9F
:1029A0007C441048114BE358984778607B6803F4E7
:1029B0008053002B12D00E4BE358194609480D4B9B
:1029C000E35898470C4BE35801221A70084BE35820
:1029D0001B68DBB21846094BE358984700BF0C3719
:1029E000BD4690BD00400240F873000004000000A6
:1029F00040000000A001000074000000D8010000A9
:102A000090B585B000AF78603960114C7C44114BB3
:102A1000E35801221A70104BE35898470023FB60DB
:102A200009E00E4BE3581A46FB68134400221A7063
:102A3000FB680133FB60FB68B3F57A7FF1DB084B81
:102A4000E3581A460023136000BF1437BD4690BDFB
:102A50008C73000058000000B0000000300000003F
:102A60008C01000080B483B000AF78603960054A03
:102A70007A44054BD35801221A7000BF0C37BD466B
:102A800080BC70472873000020000000F0B587B0BC
:102A900000AF274C7C4424490520264BE358984737
:102AA00021490620234BE35898471F490820214B12
:102AB000E3589847204B7B443D461E460FCE0FC53A
:102AC00096E8030085E803001C4B7B4498470246C8
:102AD0001B4B7B441A600E201A4B7B4498471A4BC1
:102AE0007B441A683B4619461048184BE3589847F0
:102AF0004FF0FF310D48164BE35898470B48154BE4
:102B0000E35898470948144BE35898470121074870
:102B1000124BE35898470E20114B7B44984700BF57
:102B20001C37BD46F0BD00BF010000080040024058
:102B300004730000680000009E6D00008FFEFFFF20
:102B4000AEDFBF1F97FEFFFFA0DFBF1F5C000000CE
:102B5000240000004C0100001C0100006C0000007B
:102B60005FFDFFFFB0B582B002AF104C7C440C207B
:102B70000F4BE35898470F4BE358009379234FF4DA
:102B800080620C2108480C4D6559A8470C200B4B5E
:102B90007B4498474FF480610348094BE3589847BA
:102BA00000BFBD46B0BD00BF00100E402C7200003B
:102BB000840100006801000050000000E9FCFFFFF4
:102BC00038020000B0B582B002AF124C7C440B203A
:102BD000114BE35898470A2204210D480F4BE35844
:102BE00098470F4BE3580093792304220B210848A0
:102BF0000C4D6559A8470B200B4B7B44984704218B
:102C000003480A4BE358984700BFBD46B0BD00BF1C
:102C1000000E0E40CC710000840100000401000091
:102C200018010000500000007FFCFFFF3802000088
:102C300080B483B000AF0346FB71094B7B44094A63
:102C40009A581268511C07481858016006495B5889
:102C50001946FB798B5400BF0C37BD4680BC7047CA
:102C60005C7100008C0100003000000098B500AFDE
:102C70001A4C7C441A4B7B4419461A4BE3581846AD
:102C8000194BE35898470346002B04D0174BE358E1
:102C900001221A7020E0164B7B441946114BE35871
:102CA0001846114BE35898470346002B04D0114BAC
:102CB000E35801221A700FE00F4B7B441946094B71
:102CC000E3581846084BE35898470346002B03D0B7
:102CD0000A4BE35801221A7000BF98BD267100000C
:102CE000F66B000030000000100100005C010000E5
:102CF000E46B0000C8010000CA6B0000E4000000A3
:102D000090B583B000AF78600B46FB70114C7C44EB
:102D1000114BE35800221A70104BE35800221A702E
:102D200079680B480E4BE358984705E00B4BE35886
:102D30001B78DBB2002B07D1074BE3581B78DBB2C3
:102D4000FA789A42F2D800E000BF0C37BD4690BD39
:102D5000004002408A70000030020000580000006D
:102D6000FC0100002DE9F04FDDB000AF8E4C7C443B
:102D70008E4BE3581B68002B00F00E818B4BE35801
:102D800018680A228A4BE35819468A4BE358984739
:102D9000874BE3581846884BE358984703461A4632
:102DA000864BE3581A60864B7B4487F86B3107F1FA
:102DB000680300221A6004337C2200211846814BEC
:102DC000E35898470023C7F8E83007F1EC037C226A
:102DD000002118467B4BE35898477B4BE3581B7800
:102DE000DBB2002B06D00A21784B7B441846784B87
:102DF000E35898473B1D774A7A44184611465323B7
:102E00001A46754BE35898473B1D18466A4BE358E2
:102E10009847034687F86A3197F86A21674BE35869
:102E20001B681A44614BE3581B6813445A1C07F192
:102E3000E8036A4979441846694BE358984707F113
:102E4000E80319465748674BE3589847664B7B445D
:102E50009847034618464FF0000102460B464FEADA
:102E6000830949EA92794FEA820842464B46121892
:102E700043EB0103921843EB03031046194643F258
:102E8000AF624FF00003801841EB0301574BE3584A
:102E90001D4643F2B0624FF00003A84702460B46BE
:102EA00013461846524BE3589847404BE3581B686B
:102EB0005A1C07F168034F4979441846484BE358B8
:102EC000984707F1680319463648464BE358984738
:102ED0000023C7F86C3116E0474BE3581A68D7F85F
:102EE0006C311344454AA258D35C87F86B3197F88C
:102EF0006B3119462B48424BE3589847D7F86C3151
:102F00000133C7F86C31294BE3581B685A1CD7F8BA
:102F10006C319A42E0DC3B4B7B4419462148314BF3
:102F2000E3589847284BE35800221A70364B7B44ED
:102F30009847034618464FF0000102460B46921888
:102F400043EB0303121843EB01034FEAC30B4BEAB5
:102F5000527B4FEAC20A52465B46121843EB01030A
:102F6000921843EB03031046194643F2AF624FF049
:102F70000003801841EB03011C4BE3581D4643F24C
:102F8000B0624FF00003A84702460B4613461846AE
:102F9000174BE358984700E000BF07F5BA77BD46E6
:102FA000BDE8F08F004002402A700000F8000000E9
:102FB000CC010000A80000001C020000400200003C
:102FC000E86A000080010000E4000000AA6A000036
:102FD00074010000B86A00007C000000D06A0000A4
:102FE000C0010000FC010000F3FAFFFF8C000000AC
:102FF000B80100005C6A00002002000048020000E6
:1030000044020000546A000013FAFFFF80B582B04A
:1030100000AF7860044A7A447868044BD3589847E4
:1030200000BF0837BD4680BD826D000084010000EE
:1030300080B500AF0B20044B7B4498470C20034B1A
:103040007B44984700BF80BDD1FFFFFFC9FFFFFF52
:1030500080B48DB000AF78600B46FB707B68FB627C
:10306000FB7887F82B30FB6A7B627B6A3B623B6AAA
:103070005B09FB61FB6903F5001303F207735B0255
:10308000BB6197F82B30012B09D1FB6A7B617B690F
:1030900003F01F0301229A40BB691A610CE097F804
:1030A0002B30002B08D1FB6A3B613B6903F01F0307
:1030B00001229A40BB695A61FB6AFB60FB6803F01E
:1030C0001F0301229A40BB69C3F8A02000BF343718
:1030D000BD4680BC704780B48BB000AF78600B46B3
:1030E000FB707B687B62FB7887F823307B6AFB612F
:1030F000FB69BB61BB695B097B617B6903F50013FD
:1031000003F207735B023B6197F82330002B09D071
:103110007B6AFB60FB6803F01F0301229A403B6956
:103120001A6308E07B6ABB60BB6803F01F030122DF
:103130009A403B695A6300BF2C37BD4680BC70473C
:1031400080B500AF0C4B7B449847012114200B4BFA
:103150007B44984700211420094B7B449847012168
:103160002020084B7B44984701212020064B7B44BC
:10317000984700BF80BD00BFE7FEFFFFFDFEFFFFD9
:1031800079FFFFFFE9FEFFFF65FFFFFF90B585B008
:1031900000AF2E4C7C442E4BE358FB602D4BE35884
:1031A000BB60FA68BB689A420ED907E0BB681A1D7B
:1031B000BA60FA68111DF96012681A60BB68264A85
:1031C000A2589342F2D323E0FA68BB689A421FD216
:1031D000214BE3581A461F4BE358D31A7B60FA6819
:1031E0007B681344043BFB60BA687B681344043B70
:1031F000BB600AE0BB681A1FBA60FA68111FF96069
:1032000012681A607B68043B7B607B68002BF1D1FD
:1032100000BF124BE358BB6004E0BB681A1DBA60E4
:1032200000221A60BB680E4AA2589342F5D30D4B98
:10323000E358FB60044AFB6893600B4BE3589847E4
:103240000A4BE3589847FEE700ED00E0046C0000ED
:103250006000000084000000E4010000780000002D
:103260009801000054000000C00000008801000028
:1032700080B400AFFEE7000080B400AF774B7B4422
:10328000704A126B02F00302032A00F2B88002A116
:1032900051F82220114408471100000039000000B5
:1032A0009700000097000000674A526902F0800210
:1032B000002A06D06A4A9A5811464FF400420A6022
:1032C0009EE0674A9A5811464FF4FA420A6097E026
:1032D0005C4A126A02F08072002A05D0604A9A584D
:1032E00011465A4A0A608BE05D4A9A581146584A7C
:1032F0000A60544A126A02F07002102A0AD0202A88
:103300000ED0002A00D011E0554A9A581146504A72
:103310000A600BE0524A9A5811464E4A0A6005E08C
:103320004F4A9A581146494A0A6000BF68E0454A28
:10333000126A02F08072002A05D0494A9A58114652
:10334000424A0A6021E0464A9A581146404A0A60B9
:103350003C4A126A02F07002102A0AD0202A0ED0CB
:10336000002A00D011E03E4A9A581146384A0A60B5
:103370000BE03B4A9A581146364A0A6005E0384A43
:103380009A581146314A0A6000BF2E4A126B02F069
:103390000302022A19D12B4A926A120CC2F30A02C2
:1033A00001322F495958096801FB02F22C4959583A
:1033B0000A60244A926AD2B2294959580968B1FB75
:1033C000F2F2274959580A601AE01E4AD26A120CD2
:1033D000C2F30A02013222495958096801FB02F27C
:1033E0001F4959580A60174AD26AD2B21C49595823
:1033F0000968B1FBF2F21A4959580A6000E000BFAF
:10340000104A126B02F07002702A0AD1144A9A58BC
:1034100012681149A1FB0212520811495B581A6047
:103420000CE0084A126B120902F007020C495958C5
:10343000096821FA02F20A495B581A6000BFBD46CA
:1034400080BC704700040E4010140E40001BB700F3
:1034500000093D0000127A00ABAAAAAA1A6B00006C
:103460009000000080B483B000AF78607B68184A99
:10347000934204D8174B4FF080621A6023E07B68B8
:10348000154A934203D8134B144A1A601BE07B6819
:10349000134A934203D80F4B124A1A6013E07B6819
:1034A000114A934203D80B4B104A1A600BE07B6819
:1034B0000F4A934204D8074B4FF004221A6002E0EF
:1034C000044B0C4A1A6000BF0C37BD4680BC7047E5
:1034D000FF2C3101000A0E40FF5962020001000476
:1034E000FF86930300020004FFB3C404000300043A
:1034F000FFE0F5050005000480B485B000AF7860FA
:10350000154B7B44154A9A58FA60154A7A4412685A
:10351000002A05D1134A7A441146134A9B580B607E
:10352000124B7B441B68BB60BA687B681A44FB681B
:103530009A4202DD4FF0FF3308E00D4B7B441A68DE
:103540007B6813440B4A7A441360BB6818461437EF
:10355000BD4680BC704700BF96680000E8010000CF
:1035600078D5BF1F6ED5BF1FF001000062D5BF1F09
:1035700048D5BF1F3ED5BF1F80B483B000AF786071
:103580007B68072B27D802A252F823301A44104731
:1035900021000000270000002D0000003300000083
:1035A000370000003B0000003F0000004300000027
:1035B0004FF4FA4310E04FF400430DE04FF40043A2
:1035C0000AE0084B08E0084B06E0084B04E0074B14
:1035D00002E0064B00E0002318460C37BD4680BCD5
:1035E000704700BF00093D0000127A00001BB700C1
:1035F00080B500AF0620054B7B4498470246134632
:103600009B0013449B00184680BD00BF7DFFFFFF59
:1036100080B500AF034B7B44984703465B081846D0
:1036200080BD00BFD7FFFFFF80B48BB000AF7860D4
:103630000B46FB707B687B62FB7887F823307B6AE4
:10364000FB61FB69BB61BB695B097B617B6903F55E
:10365000001303F207735B023B6197F82330002BE2
:1036600009D07B6AFB60FB6803F01F0301229A40CC
:103670003B691A6308E07B6ABB60BB6803F01F0309
:1036800001229A403B695A6300BF2C37BD4680BC7B
:10369000704780B489B000AF78607B68FB61FB69DC
:1036A000BB61BB697B617B695B093B613B6903F57E
:1036B000001303F207735B02DA6BFB69FB60FB68C4
:1036C00003F01F03012101FA03F31340002B14BF81
:1036D00001230023DBB218462437BD4680BC704767
:1036E0002DE9B04F96B000AFB04D7D4401237B650E
:1036F000AF4BEB589847AC48AE4BEB589847AE4BA6
:10370000EB589847AD4BEB589847AD4BEB58984763
:10371000AC4BEB589847AC4BEB5898470521AB4B5B
:103720007B441846AA4BEB5898470521A94B7B448C
:103730001846A74BEB5898470521A74B7B441846E2
:10374000A34BEB5898470521A44B7B441846A04B4C
:10375000EB5898470521A24B7B4418469C4BEB58ED
:10376000984705219F4B7B441846994BEB58984747
:1037700005219D4B7B441846954BEB5898470521F6
:103780009A4B7B441846924BEB5898470521984B2F
:103790007B4418468E4BEB589847964BEB581A468D
:1037A0000023137000212020934B7B449847934BB8
:1037B0007B449847034619464FF000020B461446D7
:1037C000DB1844EB04045B1844EB02044FEA441991
:1037D00049EAD3694FEA431813EB080344EB0904A1
:1037E0005B1844EB020443F2AF614FF0000213EBAD
:1037F000010844EB020940464946814BEB581C4600
:1038000043F2B0624FF00003A04703460C4618464F
:103810007C4BEB589847012120207B4B7B449847F9
:103820007A4B7B449847034619464FF000020B46FB
:1038300014464FEA840B4BEA937B4FEA830A5346C4
:103840005C465B1844EB0204E000F864F86C40EA64
:103850005370F864DB00BB64D7E912345B1A64EB85
:10386000020420017864786C40EA137078641B01CC
:103870003B64D7E910345B1844EB02042201FA637D
:10388000FA6B42EA1372FA631B01BB63D7E90E3489
:103890001946224643F2AF634FF0000411EB0308D0
:1038A00042EB040940464946554BEB581C4643F24F
:1038B000B0624FF00003A04703460C461846514B38
:1038C000EB589847524BEB581A460023137011E0FF
:1038D0004F4BEB581B78DBB2002B0BD064214D4BC8
:1038E0007B4418463A4BEB589847494BEB581A46DD
:1038F000002313702B20484B7B449847034683F0EA
:103900000103DBB2002BE3D1444BEB589847444B07
:10391000EB5898470521434B7B4418462C4BEB58FA
:1039200098470521404B7B441846294BEB58984754
:103930000A213E4B7B441846254BEB5898477B6D3C
:10394000013B032B00F2818102A252F823301A447A
:10395000104700BF11000000E500000087010000D3
:10396000450200002A4BEB581B78DBB2002B17D026
:1039700064212F4B7B441846154BEB589847244B3A
:10398000EB581A460023137000BF2B20294B7B44B1
:103990009847034683F00103DBB2002BF5D156E1D3
:1039A00002237B6553E100BF50140E40AE66000059
:1039B000180200001402000050010000D0000000B6
:1039C000BC000000C4010000AC0100005C6200000B
:1039D00074010000666200006C6200007662000004
:1039E000846200008E620000946200009A6200000F
:1039F000C0620000580000007BFEFFFF5DFEFFFF7D
:103A00008C000000B801000009FEFFFFEBFDFFFF86
:103A1000200000007861000097FDFFFF9800000083
:103A20003800000050610000566100005C61000039
:103A3000E460000001FDFFFF2B20854B7B4498478D
:103A40000346002B02D003237B6500E100212020E8
:103A5000804B7B449847804B7B44984703461946EC
:103A60004FF000020B461446DB1844EB04045B18CD
:103A700044EB020460017863786B40EAD3607863BA
:103A800058013863D7E90C8918EB030849EB04099E
:103A900043464C465B1844EB020443F2AF614FF0DF
:103AA000000213EB010844EB0209404649466B4B08
:103AB000EB581C4643F2B0624FF00003A0470346A8
:103AC0000C461846664BEB58984701212020654B61
:103AD0007B44984701237B65B9E00521624B7B4419
:103AE0001846624BEB589847614BEB581B78DBB29A
:103AF000002B4ED05F4B7B449847034619464FF04E
:103B000000020B4614466001F862F86A40EAD3608E
:103B1000F8625B01BB62D7E90A345B1A64EB02040A
:103B2000A0007862786A40EA937078629B003B62FA
:103B3000D7E908345B1844EB0204E200FA61FA6941
:103B400042EA5372FA61DB00BB61D7E906341946D9
:103B5000224643F2AF634FF0000411EB030842EB3F
:103B60000409404649463D4BEB581C4643F2B062BF
:103B70004FF00003A04703460C461846384BEB585D
:103B800098473B4BEB581A460023137001237B6583
:103B90005DE004237B655AE0374BEB5898470346BA
:103BA000012B4FD1354BEB589847354B7B44984709
:103BB000034619464FF000020B461446DB1844EB4F
:103BC00004045B1844EB020420017861786940EA40
:103BD000137078611B013B61D7E904345B1A64EB15
:103BE0000204E000F860F86840EA5370F860DB0017
:103BF000BB60D7E902345B1A64EB0204A2007A606E
:103C00007A6842EA93727A609B003B60D7E900349D
:103C10001946224643F2AF634FF0000411EB03084C
:103C200042EB0409404649460C4BEB581C4643F214
:103C3000B0624FF00003A04703460C461846084BFD
:103C4000EB58984701237B6501E001237B6576E60D
:103C500053FCFFFFD3FBFFFFB5FBFFFF8C00000011
:103C6000B801000055FBFFFFCE5F000074010000AB
:103C7000C801000017FBFFFFBC0100009C01000011
:103C800061FAFFFF53B94AB9002908BF00281CBFD9
:103C90004FF0FF314FF0FF3000F07AB9ADF1080C72
:103CA0006DE904CE00F006F8DDF804E0DDE902235A
:103CB00004B070472DE9F0478C460D460446089E37
:103CC000002B51D18A4217466DD9B2FA82FEBEF15D
:103CD000000F0BD0CEF1200C01FA0EF520FA0CFCEF
:103CE00002FA0EF74CEA050C00FA0EF44FEA174AF6
:103CF000250CBCFBFAF81FFA87F90AFB18CC45EA39
:103D00000C4508FB09F3AB420AD9ED1908F1FF3263
:103D100080F02381AB4240F22081A8F102083D44AB
:103D2000ED1AA4B2B5FBFAF00AFB105544EA0544BB
:103D300000FB09F9A14509D9E41900F1FF3380F02E
:103D40000A81A14540F2078102383C44A4EB0904F2
:103D500040EA08400021002E61D024FA0EF400232E
:103D600034607360BDE8F0878B4207D9002E54D0D1
:103D7000002186E821000846BDE8F087B3FA83F108
:103D8000002940F08E80AB4202D3824200F2FA80DA
:103D9000841A65EB03050120AC46002E3FD086E86F
:103DA0001010BDE8F08712B90127B7FBF2F7B7FA98
:103DB00087FEBEF1000F34D1EB1B3A0C1FFA87FCD3
:103DC0000121B3FBF2F8250C02FB183345EA034549
:103DD0000CFB08F3AB4207D9ED1908F1FF3002D212
:103DE000AB4200F2D1808046ED1AA3B2B5FBF2F0EF
:103DF00002FB105543EA05440CFB00FCA44507D91F
:103E0000E41900F1FF3302D2A44500F2B88018464D
:103E1000A4EB0C0440EA08409DE731463046BDE87B
:103E2000F087CEF1200405FA0EF307FA0EF720FA18
:103E300004F83A0C25FA04F448EA0308B4FBF2F15A
:103E40004FEA184502FB11441FFA87FC45EA044576
:103E500001FB0CF3AB4200FA0EF409D9ED1901F1A4
:103E6000FF3080F08A80AB4240F2878002393D44C7
:103E7000EB1A1FFA88F5B3FBF2F002FB103345EAA8
:103E8000034500FB0CF3AB4207D9ED1900F1FF38F5
:103E90006FD2AB426DD902383D44EB1A40EA014182
:103EA0008FE7C1F1200722FA07F88B4005FA01F4E9
:103EB00048EA030320FA07FE4FEA134CFD404EEA9E
:103EC000040EB5FBFCF94FEA1E440CFB19551FFA12
:103ED00083F844EA054509FB08F4AC4202FA01F212
:103EE00000FA01FA08D9ED1809F1FF3043D2AC42CB
:103EF00041D9A9F102091D442D1B1FFA8EFEB5FB05
:103F0000FCF00CFB10554EEA054400FB08F8A045F8
:103F100007D9E41800F1FF3529D2A04527D9023886
:103F20001C4440EA0940A4EB0804A0FB02894C456C
:103F3000C6464D4615D312D056B1BAEB0E0364EB0C
:103F4000050404FA07F7CB401F43CC403760746088
:103F50000021BDE8F0871846F8E69046E0E6C24545
:103F6000EAD2B8EB020E69EB03050138E4E7284614
:103F7000D7E7404691E78146BEE7014678E7023839
:103F80003C4445E7084608E7A8F102083D442BE712
:103F9000704700BF70B50F4E0F4D761BB61018BF9F
:103FA000002405D0013455F8043B9847A642F9D1C6
:103FB0000A4E0B4D761B05F0DBFEB61018BF002431
:103FC00006D0013455F8043B9847A642F9D170BD9C
:103FD00070BD00BF7C9D40007C9D4000849D4000E2
:103FE0007C9D4000931E222B10D80A2A10B506D0C3
:103FF00000230C46194401F023FE204610BD002882
:10400000F6DA2D230B7040420123F2E700200870FE
:10401000704700BFFFF7E6BF844641EA000313F094
:1040200003036DD1403A41D351F8043B40F8043BBF
:1040300051F8043B40F8043B51F8043B40F8043B82
:1040400051F8043B40F8043B51F8043B40F8043B72
:1040500051F8043B40F8043B51F8043B40F8043B62
:1040600051F8043B40F8043B51F8043B40F8043B52
:1040700051F8043B40F8043B51F8043B40F8043B42
:1040800051F8043B40F8043B51F8043B40F8043B32
:1040900051F8043B40F8043B51F8043B40F8043B22
:1040A00051F8043B40F8043B403ABDD2303211D3C2
:1040B00051F8043B40F8043B51F8043B40F8043B02
:1040C00051F8043B40F8043B51F8043B40F8043BF2
:1040D000103AEDD20C3205D351F8043B40F8043BC2
:1040E000043AF9D2043208D0D2071CBF11F8013BC0
:1040F00000F8013B01D30B8803806046704700BF86
:10410000082A13D38B078DD010F003038AD0C3F194
:104110000403D21ADB071CBF11F8013B00F8013B76
:1041200080D331F8023B20F8023B7BE7043AD9D335
:10413000013A11F8013B00F8013BF9D20B7803700A
:104140004B7843708B7883706046704770B48607F5
:1041500046D0541E002A41D0CAB2034602E014F1F0
:10416000FF343BD303F8012B9D07F8D1032C2ED944
:10417000CDB245EA05250F2C45EA054519D903F1CD
:1041800010022646103E0F2E42F8105C42F80C5CDE
:1041900042F8085C42F8045C02F11002F2D8A4F183
:1041A000100222F00F0204F00F041032032C13440B
:1041B0000DD91E462246043A032A46F8045BFAD873
:1041C000221F22F003020432134404F003042CB132
:1041D000C9B21C4403F8011B9C42FBD170BC704760
:1041E00014460346C2E700BF0EB4F0B59CB021AB45
:1041F0000F4953F8042B019305466FF000440868FB
:1042000002954FF402774FF6FF7602A90695ADF8B6
:10421000147004940794ADF8166000F0E3FA029B62
:1042200000221A701CB0BDE8F04003B0704700BF18
:10423000100000200000000000000000000000004E
:1042400090F800F06DE9024520F007016FF0000CD6
:1042500010F0070491F820F040F049804FF000047E
:104260006FF00700D1E9002391F840F000F1080059
:1042700082FA4CF2A4FA8CF283FA4CF3A2FA8CF391
:104280004BBBD1E9022382FA4CF200F10800A4FAF8
:104290008CF283FA4CF3A2FA8CF3E3B9D1E904234C
:1042A00082FA4CF200F10800A4FA8CF283FA4CF383
:1042B000A2FA8CF37BB9D1E9062301F1200182FA3D
:1042C0004CF200F10800A4FA8CF283FA4CF3A2FA43
:1042D0008CF3002BC6D0002A04BF04301A4612BA51
:1042E000B2FA82F2FDE8024500EBD2007047D1E954
:1042F000002304F00305C4F100004FEAC50514F0E3
:10430000040F91F840F00CFA05F562EA05021CBFB3
:1043100063EA050362464FF00004A9E72DE9F04186
:104320004FF0010E744600254FF0FF362B198B42DB
:1043300000EB06070DD23F5D10F803C0BC452DD23F
:104340001D460124A3EB060E2B198B4200EB06073A
:10435000F1D34FF00108C2F800E0444600254FF0C9
:10436000FF372B19994200EB070E0ED91EF804E017
:1043700010F803C0F44518D91D460124A3EB070823
:104380002B19994200EB070EF0D80137701C8742B9
:1043900024BFC2F800803846BDE8F0810CD04FF051
:1043A000010E2E4674467544C0E70BD04FF001084D
:1043B0002F4644464544D4E7744512BF01341D4698
:1043C0000124B3E7444512BF01341D460124C8E768
:1043D0002DE9F04FADF2144D164605468B461046BA
:1043E000194603AA1C46FFF799FF03AB81460DF25D
:1043F0000C4243F8044F9342FBD14CB1631E721E32
:1044000004A812F8011F40F8213013F1FF33F8D24D
:1044100003994A463144304602F052FF00286FD1DA
:1044200009F1FF330093F318824601932346804637
:10443000544658469A4608EB0A073A1A002128447F
:1044400002F0EEFE002856D1002F54D0EB1904AA3A
:1044500013F8013C52F823304BB124B1039A934234
:1044600001D2AAEB0203984400243846E3E74C4506
:1044700023460AF1FF3E38BF4B46734513D208EB83
:10448000030216F803C0A85C84452A4406EB030126
:1044900006D02CE011F801CF12F8010F844526D187
:1044A00001337345F6D34C45009980F08980009B19
:1044B00008EB0302019BA85C1B7898422A447FD139
:1044C000019804F1FF3B06E010F801CD12F801ED70
:1044D000F44503D119464B1E9B45F5D101348C425E
:1044E00070D8039C3846A044AAEB0404A3E7C9F1A2
:1044F00001029044B7E700200DF2144DBDE8F08FA3
:10450000A4EB09034B4538BF4B46013309F1FF3893
:10451000039306EB080358464FF0000ACB46994632
:104520000AEB04073A1A0021284402F079FE002819
:10453000E1D1002FDFD0EB1904AA13F8013C52F8A7
:104540002330A3BB611E8B4515D20AEB0B0216F874
:104550000B3015F802E09E452A4406EB0B005B4643
:1045600006D027E010F801CF12F801EFF44521D171
:1045700001338B42F6D3B8F1FF3F11D00AEB0802AA
:1045800099F80010AB5C99422A440FD14B4605E0E4
:1045900013F8010D12F8011D884207D1B342F7D17B
:1045A00005EB0A000DF2144DBDE8F08F039B9A4411
:1045B0003846B5E7CBF1010292449A443846AFE75A
:1045C00049468BE705EB080096E700BF0278002A12
:1045D00000F001812DE9F04F91F8008085B044464C
:1045E000B8F1000F16D0864601F1010C012703E057
:1045F00013F8014B6CB19C46A24214BF002707F090
:1046000001071EF8012F6346002AF1D19CF8003003
:10461000FBB917B105B0BDE8F08F0E46054641461F
:104620000130ACEB060403F093F9074688B1012C86
:10463000F0D02819874294BFC11B01211F2C8B4643
:104640000BD9234632463846FFF7C2FE05B0BDE817
:10465000F08F002005B0BDE8F08F03AA2146304658
:10466000FFF75CFE0399804602463144304602F073
:1046700027FE002857D108F1FF330093F318814635
:10468000054601935846B2466619321A002138444D
:1046900002F0C6FD0028DCD1002EDAD0C845434622
:1046A00038BF4B469C4212D95A191AF80310B85C0D
:1046B00081423A440AEB030E06D02CE01EF8010FAB
:1046C00012F8011F884226D101339C42F6D1C84519
:1046D000009940F28380009BEA18019BB85C1B782C
:1046E00098423A447AD1019809F1FF3B06E010F86C
:1046F00001CD12F801EDF44503D119464B1E5B457F
:10470000F5D109F10109894557D8039B30461D446D
:10471000A4EB0309B8E7C8F1010215441D444FF0AA
:1047200000093046B0E7A4EB0803434538BF4346D1
:10473000013308F1FF39039306EB090358460025BE
:10474000BB469A4667193A1A0021584402F068FDA0
:1047500000287FF47EAF002F3FF47BAF444515D98E
:1047600008EB050216F808301BF8020098425A447C
:1047700006EB0801434606D023E011F801EF12F8DA
:10478000010F86451DD101339C42F6D1B9F1FF3F9F
:1047900012D005EB09029AF800301BF8021099427A
:1047A0005A4414D1534605E013F8010D12F8011DC7
:1047B00088420CD1B342F7D15F46781905B0BDE805
:1047C000F08FC8F1010215441D443846BAE7039B37
:1047D00038461D44B6E70B7813B97047414690E759
:1047E000002070472DE9F04FC3B00C460B91924664
:1047F0000F930C9002F04CFA03681A931846FFF7D7
:104800001FFDA3891990190603D52369002B01F018
:10481000038000230DF1C809139315931493279374
:10482000269318931B930993CDF89490C84616933A
:1048300017939AF800305446E3B1252B02D119E0C2
:10484000252B03D014F8013F002BF9D1A4EB0A0566
:1048500085B1269B279AC8F800A001332A44072B6C
:10486000C8F80450279226937FDC08F10808099BBA
:104870002B4409932378002B7FD000231A468DF810
:10488000773019460D939B464FF0FF3063780A90BE
:1048900004F1010A0AF1010AA3F12000582800F2EC
:1048A000C183DFE810F03802BF03BF034002BF033B
:1048B000BF03BF03BF03BF03BF0345020302BF0320
:1048C0005D006B02BF0386029D039D039D039D0354
:1048D0009D039D039D039D039D03BF03BF03BF0372
:1048E000BF03BF03BF03BF03BF03BF03BF03370340
:1048F0005703BF035703BF03BF03BF03BF0398039F
:10490000BF03BF03AD03BF03BF03BF03BF03BF03A9
:104910005902BF03BF031E03BF03BF03BF03BF038F
:10492000BF03BF03BF03BF03BF03BF03C602DB0256
:104930005703570357038B02DB02BF03BF039002E9
:10494000BF039D02CC01B4020802BF03E101BF0313
:104950007E00BF03BF030D020D980F9340420D90E0
:104960004BF0040B9AF8003094E725AA0B990C98A9
:1049700003F062F840B9C84679E7279B23B10C9849
:104980000B9925AA03F058F80B9B9B8913F0400F55
:10499000099B18BF4FF0FF330993099843B0BDE856
:1049A000F08F1BF0200F119340F0DD810F9A1BF068
:1049B000100F134640F06E851BF0400F00F06A8523
:1049C00014880432002501230F9200278DF8777098
:1049D0000A994A1C00F065822BF08002079254EA83
:1049E000050240F06482002940F03C84002B40F036
:1049F000D7841BF001030E9300F0048642AE3023EF
:104A000006F8413D0A9B0E9A9342B8BF134608939D
:104A10000023129317B1089B01330893079B13F0EF
:104A20000203109302D0089B02330893079B13F0F4
:104A3000840540F00E830D9B089AA3EB020BBBF19B
:104A4000000F40F30683BBF1100F279C269A29DD47
:104A500043462146A84610270C9C0B9D06E0ABF16F
:104A6000100BBBF1100F03F1080318DD0132B7483A
:104A700026921031072A279183E88100EFDD25AACD
:104A80002946204602F0D8FF00287FF47DAFABF125
:104A9000100BBBF1100F2799269A4B46E6DC4546D2
:104AA0000C4698460132A94B26925C44072A27946B
:104AB00088E8080800F398849DF8777008F10808E2
:104AC00077B1269B013301340DF177010122072BC9
:104AD0002794269388E8060000F3DB8308F1080892
:104AE000109B6BB1269B013302341EA90222072BB7
:104AF0002794269388E8060000F3D68308F1080877
:104B0000802D00F015830A9B0E9A9F1A002F36DD28
:104B1000102F269B8E4D27DD42462146B0464FF092
:104B2000100B2E460C9C0B9D04E0103F102F02F141
:104B3000080215DD01331031072B2791269382E8F7
:104B40004008F2DD25AA2946204602F075FF00281C
:104B50007FF41AAF103F102F2799269B4A46E9DCB5
:104B600035460C464646904601333C44072B279475
:104B7000269388E8A00000F3818308F10808079BCA
:104B8000DF0500F16882269B0E99C8F800600133AA
:104B90000C44072B2794C8F80410269300F34D8388
:104BA00008F10808079B5B073AD50D9B089A9D1AE8
:104BB000002D35DD102D269B20DD10260C9FDDF805
:104BC0002CB004E0103D102D08F1080816DD01336B
:104BD0005E4A26931034072B279488E84400F1DDC1
:104BE00025AA5946384602F027FF00287FF4CCAEAC
:104BF000103D102D279C269BC846E8DC0133534A04
:104C000026932C44072B279488E8240008DD25AA46
:104C10000B990C9802F010FF00287FF4B5AE279C8A
:104C2000099B0D9A08998A42ACBF9B185B1809939F
:104C3000002C40F00D8300232693C846F9E511931C
:104C40001BF0200340F0E3811BF0100240F02E84A3
:104C50001BF0400300F02A840F9913460A460432E1
:104C60000C880F920025B0E60F9A11931668002465
:104C70008DF87740151D002E00F0A7860A9A531C68
:104C800000F009862146304602F0CAFA002800F0FA
:104C9000E186831B0E930A940F95CDF81CB023EA8E
:104CA000E373089312949DF87770B3E69AF8003096
:104CB00001222B21EEE54BF0200B9AF80030E9E5BC
:104CC0001193002A40F09587224B18931BF0200F78
:104CD00040F011810F9A1BF0100F134640F0E18352
:104CE0001BF0400F00F0DD83043314880F93002580
:104CF0001BF0010F00F00C8154EA050300F008815D
:104D000030239DF844208DF878308DF879204BF0D1
:104D1000020B022359E69AF8003000297FF4BAAD5D
:104D200001222021B6E54BF0010B9AF80030B1E5E5
:104D30000F9C23680D9318460028234603F10403B3
:104D4000FFF60AAE0F939AF80030A3E5049B4000EB
:104D5000149B4000E49A40004BF0100B1BF0200F16
:104D600011933FF423AE0F9D073525F0070303F1A0
:104D70000802D3E900450F92012326E69AF8003095
:104D80002A2B0AF1010400F02787A3F1300009283B
:104D9000A24600F2AD8600231C461AF8013B04EB44
:104DA000840400EB4404A3F130000928F5D90A94E7
:104DB00072E54BF0800B9AF800306BE54BF0400B3E
:104DC0009AF8003066E59AF800306C2B03BF9AF829
:104DD00001304BF0200B0AF1010A4BF0100B59E5A2
:104DE000002A40F011871BF0200F40F0F9841BF0DF
:104DF000100F40F0AC841BF0400F00F0A8840F9A15
:104E0000136804320F92BDF824201A8011E50F991F
:104E1000B34B0C6818933022782304318DF8793025
:104E200011934BF0020B0F9100258DF8782002238F
:104E3000CBE50F9911930A688DF8A02000230A464C
:104E40001F468DF87730043201230893CDF81CB04B
:104E50000A9712970F920E9328AEDFE51193002A5E
:104E600040F0EA861BF0200F5DD11BF0100F40F0E0
:104E700008831BF0400F00F004830F99B1F9004044
:104E80000431E51722462B460F91002A73F10003E7
:104E900058DB0A999DF877704A1C4FF001037FF4A4
:104EA0009BAD54EA050200F0DF81CDF81CB0012B68
:104EB00000F07B82022B40F0068218984E462309B0
:104EC00004F00F0143EA05732A091C461546435CAA
:104ED00006F8013D54EA0503F1D1A9EB06030E9350
:104EE00090E51193002A40F0A3867E4B18931BF0A7
:104EF000200F3FF4EFAE0F9D073525F0070303F1B8
:104F000008021BF0010F0F92D3E900457FF4F4AEC5
:104F100002235AE51193002A40F086864BF0100BCD
:104F20001BF0200FA1D00F9D073525F00705D5E90F
:104F30000023002A05F108011D4673F100030F91BB
:104F40001446A6DA2D27644265EB45058DF8777087
:104F500001233DE51193002A40F062860F9D07353D
:104F600025F0070303F108020F921A6815925B6897
:104F70001493149B159D23F00044284621464FF0BE
:104F8000FF32594B03F01EFE002840F04A832846AA
:104F900021464FF0FF32544B03F0F6FD002840F05D
:104FA000408315A80DC8149903F0E4FD002840F0D3
:104FB00030859DF877704D4E4D4B2BF0800007905B
:104FC00011980322002108920A914728D8BF1E4653
:104FD0000E9212911EE54BF0080B9AF8003059E43E
:104FE000A3F1300000231C461AF8013B04EB8404B3
:104FF00000EB4404A3F130000928F5D90D944BE4EB
:105000004BF0100B11931BF020033FF41DAE0F9DCE
:10501000073525F0070303F10802D3E900450F9295
:105020000023D2E41193002A40F0E785119A002A68
:105030003FF4A3AC002301211F4608918DF8A02066
:10504000CDF81CB08DF877300A9312930E9128AEEC
:10505000E4E4279C34E5119B652B40F3A78015A859
:105060000DC8149903F07CFD002800F05081269BA8
:10507000204AC8F80020013301340122072B27946D
:105080002693C8F8042000F36A8308F108081F9BE0
:10509000139A279C934203DB079BDD077FF582ADC4
:1050A000269B19991A9AC8F8002001330C44072B43
:1050B000C8F804102794269300F39E8308F108088B
:1050C000139B5E1E002E7FF76DAD102E269B0A4DA2
:1050D00040F3F58122461027DDF830B00B9C13E039
:1050E000E49A4000D09A4000FFFFEF7FC49A40004E
:1050F000C09A4000009B4000149B400008F1080843
:10510000103E102E40F3DA8101331032072B279224
:10511000269388E8A000F1DD25AA2146584602F032
:105120008BFC00287FF430AC279A269BC846E7E723
:105130000D9B089A9F1A002F7FF7E5AC102F269B36
:10514000B64D27DD42462146B0464FF0100B2E46A5
:105150000C9C0B9D04E0103F102F02F1080215DD9E
:1051600001331031072B2791269382E84008F2DDA6
:1051700025AA2946204602F05FFC00287FF404ACF3
:10518000103F102F2799269B4A46E9DC35460C46EE
:105190004646904601333C44072B2794269388E8E3
:1051A000A00000F3328208F10808ACE4139B269FAC
:1051B000012B40F3FE81013701340123072F27948F
:1051C0002697C8F80060C8F8043000F3038208F19D
:1051D0000808199A1A9BC8F8003001371444072FA1
:1051E00027942697C8F8042000F3008208F10808E5
:1051F00015A80DC8149903F0B3FC139B002840F0C8
:105200000181013B013701361C44072F2697279463
:10521000C8F80060C8F8043000F3278108F10808D6
:105220001B9AC8F804200137144421AB072F279498
:105230002697C8F800307FF7B3AC25AA0B990C98D5
:1052400002F0FAFB00287FF49FAB279CC846A9E434
:1052500025AA0B990C9802F0EFFB00283FF4EBAC69
:10526000FFF792BBDDF81CB0012B00F03481022B5C
:1052700025D1CDF81CB0002400251EE625AA0B99E7
:105280000C9802F0D9FB00287FF47EAB279CC8461F
:1052900075E425AA0B990C9802F0CEFB00287FF448
:1052A00073AB279CC8461BE425AA0B990C9802F007
:1052B000C3FB00287FF468AB279CC84620E4CDF8E8
:1052C0001CB000240025494600E03146E20842EACD
:1052D0004572E80804F0070305461446303354EAE3
:1052E000050201F8013C01F1FF36EED1079AD20721
:1052F0007FF5F3AD302B3FF4F0AD0239302306F8E3
:10530000013CA9EB01030E930E46FFF77BBB1F99EF
:10531000002940F32E82129B139A9342A8BF134692
:10532000002B1F460DDD269BC8F8006001333C446E
:10533000072B2794C8F80470269300F31F8308F105
:105340000808129B002FA8BFDB1B002B1F4640F351
:10535000D680102F269B314D40F3ED8142462146E9
:10536000B0464FF0100B2E460C9C0B9D04E008320B
:10537000103F102F40F3DB8101331031072B2791B1
:10538000269382E84008F2DD25AA2946204602F04D
:1053900053FB00287FF4F8AA2799269B4A46E7E7A3
:1053A0000A9B0E934E46FFF72DBB002D08BF0A2C1B
:1053B000C0F08F804E46204629460A220023FEF781
:1053C00061FC303206F8012D2046294600230A22CE
:1053D000FEF758FC04460D4654EA0503EBD1A9EB51
:1053E00006030E93FFF70EBB25AA0B990C9802F04B
:1053F00023FB00287FF4C8AA9DF87770279CC84635
:10540000FFF75EBB5E1E002E7FF70AAF102E034D26
:1054100022DD22464FF0100B0C9C06E0149B40004E
:10542000103E102E08F1080815DD01371032072F45
:105430002792269788E82008F2DD25AA0B992046B6
:1054400002F0FAFA00287FF49FAA103E102E279A45
:10545000269FC846E9DC144601373444072F2794B9
:10546000269788E860007FF7D9AE25AA0B990C989B
:1054700002F0E2FA00287FF487AA279C269FC846FC
:10548000CEE60F9A146813460433E5170F932246AD
:105490002B46FAE404321C680F9201230025FFF723
:1054A00094BA1C6804330F93002521E40F990A462F
:1054B00004320C680F920025FFF787BA14460133B7
:1054C0003444072B2794269388E860007FF768AB65
:1054D000B3E6DDF81CB0CDF81CB042AE3034012389
:1054E00006F8414D0E93FFF78DBA25AA0B990C983B
:1054F00002F0A2FA00287FF447AA279CC8461F9A08
:10550000139B9A4244DB079BD90741D4139B129803
:105510009A1A1D1A9542A8BF1546002D0EDD269930
:10552000C8F80450013106442C440729C8F800602B
:105530002794269100F33B8208F10808002DACBFA8
:10554000561B1646002E7FF72DAB102E269BB04D16
:10555000B5DD22461027DDF830B00B9C04E008F1E1
:105560000808103E102EA9DD01331032072B2792B8
:10557000269388E8A000F2DD25AA2146584602F0CD
:105580005BFA00287FF400AA279A269BC846E8E722
:10559000269B19981A99C8F8001001330444072B68
:1055A0002794C8F80400269300F3F58108F1080851
:1055B000ACE7079BDA073FF5FEAD01370134012365
:1055C000072F27942697C8F80060C8F804307FF7A3
:1055D00025AE4AE725AA0B990C9802F02DFA00286F
:1055E0007FF4D2A9279C269FC846F2E525AA0B99ED
:1055F0000C9802F021FA00287FF4C6A9279C269F68
:10560000C846F5E54E46FFF7FDB925AA0B990C985B
:1056100002F012FA00287FF4B7A9279CC846FFF7CA
:1056200072BA159C22462046149C2346214603F05C
:10563000C9FA002840F086820A9B0133119B23F0AF
:1056400020030E9300F0E281472B00F01E814BF403
:1056500080730793149B1F1E159B0893BBBF3B468B
:1056600003F1004700232D231093119B662B00F0BC
:10567000BB81462B00F0DF800E9B089A452B0CBFA8
:105680000A9B0A9D23A820A908BF5D1C04900391D2
:105690001FA802213B460290019500910C9800F052
:1056A000B3FB119B672B064640F0E0811BF0010F16
:1056B00000F046827419169A0898179B394603F031
:1056C0004FFA002840F06581239BA34206D2302187
:1056D0005A1C23921970239B9C42F9D89B1B13934D
:1056E0000E9B472B00F0E980119B652B40F3CD8189
:1056F000119B662B1F9B129300F09E81139B129AA5
:105700001946914200F38A811BF0010F40F0138289
:1057100022EAE273089367230E921193109B002BE9
:1057200040F0C4800A939DF87770FFF773B935464F
:105730000C464646904601333C44072B279426935B
:1057400088E8A0003FF7D1AE08F10808D7E60F9A25
:10575000136804320F92099A1A60FFF76AB825AAF3
:105760000B990C9802F068F900287FF40DA9C8463F
:105770008DE4269B274AC8F800200133013401221A
:10578000072B27942693C8F8042072DC08F1080838
:1057900029B9139B1BB9079BD8077FF503AA269B42
:1057A00019981A9AC8F80020013302462244072BA0
:1057B0002792C8F80400269300F38D8108F10808A9
:1057C0000029C0F265811399C8F8006001338C1874
:1057D000072B27942693C8F804107FF7E1A92CE53E
:1057E0000F9A09991368CD170846043229460F927B
:1057F000C3E90001FFF71DB825AA0B990C9802F028
:105800001BF900287FF4C0A8279CC84658E400BFB5
:10581000149B4000009B400040210C9801F04AFA84
:105820000B9A10601061002800F0F2810B9A40235F
:105830005361FEF7EEBF23A820A90A9C04900391B0
:105840001FA803210290089A01943B4600910C98EE
:1058500000F0DAFA25460646119B462B06EB0504B6
:105860007FF429AF3378302B00F078811F9D2C44D2
:1058700021E725AA0B990C9802F0DEF800287FF4A6
:1058800083A81F99279CC84682E70A9B002B08BF64
:1058900001230A93DBE630460A94FEF7D1FC0F950C
:1058A0000E90CDF81CB00346FFF7F9B92D27002361
:1058B0008DF877700A93FFF7AEB81F9B12931A46C4
:1058C000033304DB0A9B19469142BFF617AF119BC5
:1058D000023B11939DF844308DF88430129B013BBC
:1058E000002B1F93BDBF129BC3F101032D222B225E
:1058F000092B8DF8852040F316810DF19304204685
:10590000AB4D00E0104685FB0312D917C1EBA20195
:1059100001EB8102A3EB42023032092900F8012C8D
:105920000B4600F1FF32EDDC30330238D9B284424D
:1059300002F8011C40F265810DF18600134601E07A
:1059400013F8011B00F8011BA342F9D101339B1A84
:105950000DF18602134421AA9B1A139A1B93012A64
:1059600013440E9340F319810E9B199A13440E931E
:1059700023EAE373089300231293CFE625AA0B9939
:105980000C9802F059F800287EF4FEAF279CC84618
:10599000D7E42346A2E625AA0B990C9802F04CF80E
:1059A00000287EF4F1AF1F9A279CC846AEE525AAD1
:1059B0000B990C9802F040F800287EF4E5AF1F9A8E
:1059C000139B279C9A1AC846B8E50A9B1296062B89
:1059D00028BF06230A96374608930F95CDF81CB0CA
:1059E0000E93744EFFF716B823A820A90A9D0490C1
:1059F00003911FA803210290089A01953B4600914C
:105A00000C9800F001FA064644192BE706230A9386
:105A10001DE62D278DF87770FFF7CDBA199A139BE5
:105A20001344129A0E93002A40F3B08023EAE373E2
:105A300008936723119371E6002B40F3C3800A9A01
:105A4000002A40F099801BF0010F40F095800893E8
:105A50000E9363E60A9B08930E930A900F95CDF878
:105A60001CB012909DF87770FEF7D4BF119B472BA6
:105A70007FF420AE1BF0010F7FF4EEAE239B9B1B47
:105A800013930E9B472B3FF418AF1F9B129321E7F4
:105A90004F421031484D2FDA1024DDF830B004E0C9
:105AA00008F10808103F102F26DD01331032072BB4
:105AB00027922693C8F80050C8F80440F0DD25AAC4
:105AC0000B99584601F0B8FF00287EF45DAF279A85
:105AD000269BC846E6E725AA0B990C9801F0ACFF77
