S01700004A52536D6974684669726D776172652E737265632F
S21440000018390020051F4000E91F4000E91F400046
S214400010E91F4000E91F4000E91F400000000000C3
S214400020000000000000000000000000E91F400043
S214400030E91F400000000000E91F4000E91F4000A3
S214400040E91F4000E91F4000E91F4000E91F40004B
S214400050E91F4000E91F4000E91F40000000000083
S214400060E91F4000E91F400000000000190340005F
S2144000703D0340000000000045174000E91F4000D7
S2144000800000000000000000E91F4000E91F40009B
S214400090E91F4000E91F4000E91F400039154000B5
S2144000A0E91F4000E91F400000000000000000007B
S2144000B000000000E91F4000E91F4000E91F400023
S2144000C0E91F4000E91F4000E91F400010B5054CFD
S2144000D0237833B9044B13B10448AFF300800123AF
S2144000E0237010BD3C040020000000007434400023
S2144000F00C4B43B10C480D4910B5AFF300800C488B
S214400100036823B910BD0A48036833B97047094BE2
S214400110002BF7D0BDE810401847064B002BF5D013
S214400120184700BF00000000743440004004002020
S214400130743440000000000090B585B000AF786091
S2144001403960374C7C447868364BE3589847F860BB
S2144001507868354BE35898470246FB681340FB6087
S214400160FB68002B48D00023BB6040E02F4B7B440D
S2144001701A46BB681B0113441A683B689A4230D142
S2144001802B4B7B441A46BB681B01134404331A6846
S214400190FB681340002B24D0264B7B441A46BB6892
S2144001A01B0113440C331B68234A7A441146BA6831
S2144001B012010A441068214A7A441146BA6812016C
S2144001C00A4404321268114698471D4B7B441A462F
S2144001D0BB681B01134404331B68DB43FA681340B7
S2144001E0FB60BB680133BB60BB68062B03D8FB686B
S2144001F0002BBBD100E000BF124BE3581B68002B1E
S21440020009D0114B7B441B68002B04D00F4B7B441A
S2144002101B687868984700BF1437BD4690BD00BF3E
S2144002202C330000FC00000014010000E602C01F52
S214400230D202C01FBA02C01FAA02C01F9C02C01F23
S2144002408802C01F94000000C402C01FBA02C01F2C
S21440025090B587B000AFF860B9607A603B60264CD6
S2144002607C44264B7B441B68062B01D901233EE089
S2144002700023FB7512E0FB7D1B01214A7A441344A0
S2144002803B613B691A68BB689A4204D13B695A682D
S2144002907B689A4209D0FB7D0133FB75FA7D194B8A
S2144002A07B441B689A42E6D900E000BF3B69BA68C7
S2144002B01A603B697A685A603B693A689A603B695B
S2144002C0BA6ADA60FA7D104B7B441B6801339A4267
S2144002D006D10E4B7B441B6801330D4A7A441360AB
S2144002E03A687968F8680B4BE358984700231846F5
S2144002F01C37BD4690BD00BF103200006002C01FD4
S214400300D801C01F2402C01FFC01C01FF001C01F3F
S214400310E801C01F5001000080B500AF054A7A448E
S2144003200B210348044BD358984700BF80BD00BFFD
S214400330000E0E40523100007400000080B500AF41
S214400340054A7A440C210348044BD358984700BFCB
S21440035080BD00BF00100E402E310000740000002B
S21440036080B487B000AFF860B9607A60FA68BB685E
S2144003709B0113447B617B6902221A607B694FF0C4
S214400380FF329A627B691B6A7B697A685A6000BF53
S2144003901C37BD4680BC704780B483B000AF7860E1
S2144003A039607A683B689B01134405221A6000BF97
S2144003B00C37BD4680BC704780B485B000AFF8604F
S2144003C0B9607A60FA68BB689B0113441C337A684C
S2144003D01A6000BF1437BD4680BC704780B487B0F3
S2144003E000AFF860B9607A60FA68BB689B01134456
S2144003F07B617B697A685A6200BF1C37BD4680BC09
S214400400704780B485B000AF786039607A683B68E2
S2144004109B011344FB60FB681B6A18461437BD46B5
S21440042080BC704780B48DB000AFF860B9607A6029
S2144004303B6002233B6108237B612023BB61802312
S214400440FB61BB6BDB0B3B620023FB621AE0FB6A83
S2144004509B0007F13002134453F8203CBA68B2FBC5
S214400460F3F3BB62BB6A1B0C7B62FA68BB6A9A42B8
S21440047001D9002323E0FA687B6A9A4206D2FB6AD7
S2144004800133FB62FB6A042BE1D900E000BFFB6A44
S214400490042B01D9002312E07B68002B08D0FB6AAE
S2144004A09B0007F13002134453F8202C7B681A60F7
S2144004B03B68002B02D03B68FA6A1A600123184654
S2144004C03437BD4680BC704780B489B000AFF86012
S2144004D0B9607A60BB681A017B689A4202D81023DA
S2144004E0FB6101E00823FB617B68DA00FB69B968C1
S2144004F001FB03F35B081A44FB69B96801FB03F38D
S214400500B2FBF3F3BB61BB69DB087B61BB6903F0FD
S21440051007033B617B69002B03D07B69B3F5803FC3
S21440052001D301230FE0FB69082B05D1FB685B680C
S21440053043F40022FB685A603B691A047B691A43FD
S214400540FB681A62002318462437BD4680BC7047B5
S21440055090B583B000AF7860134C7C447868134BFA
S214400560E35898477B6800225A607B6800225A62AC
S2144005707B6800229A6278680D4BE3589847786803
S2144005800C4BE358984778680B4BE3589847786885
S2144005900A4BE35898477868094BE358984700BF9A
S2144005A00C37BD4690BD00BF162F00000C00000063
S2144005B064000000DC0000003C0100002001000058
S2144005C0C800000090B585B000AFF860B9607A60AA
S2144005D01F4C7C44F8681F4BE35898471E4B7B449F
S2144005E01A4600231360BB68002B0AD0BB681B6802
S2144005F07A681946F868194BE35898470346002B23
S21440060001D0012320E0BB685A68BB689B681A4348
S214400610BB681B691A43BB68DB681A43104B7B44B4
S2144006201B6813430F4A7A4413600F4B7B441B6886
S2144006300E4A7A441360FB685A680D4B7B441B682D
S2144006401A43FB685A60002318461437BD4690BDCF
S2144006509E2E0000A0000000EEFEBF1F4C010000D2
S214400660AEFEBF1FA6FEBF1FA0FEBF1F9AFEBF1F47
S21440067090FEBF1F90B585B000AFF860B9607A6055
S2144006800C4C7C447A68B968F8680B4BE35898473A
S2144006900346002B01D0012308E0FB685B6823F08B
S2144006A00F0343F00202FB685A60002318461437D3
S2144006B0BD4690BDEE2D0000B800000080B483B06B
S2144006C000AF78607B6840221A6000BF0C37BD469A
S2144006D080BC704780B483B000AF78607B68882267
S2144006E01A6000BF0C37BD4680BC704780B483B0EC
S2144006F000AF78607B6810221A6000BF0C37BD469A
S21440070080BC704780B483B000AF78607B6824229A
S2144007101A6000BF0C37BD4680BC704780B483B0BB
S21440072000AF786039607B683A689A6000BF0C37E3
S214400730BD4680BC704780B483B000AF78603960F7
S2144007407B683A68DA6000BF0C37BD4680BC7047AD
S21440075080B483B000AF78607B685B6918460C371E
S214400760BD4680BC704780B483B000AF78607B687D
S2144007704FF480721A6000BF0C37BD4680BC70478D
S21440078080B483B000AF78607B684FF400321A6064
S21440079000BF0C37BD4680BC704780B483B000AF06
S2144007A078607B684FF400221A6000BF0C37BD4665
S2144007B080BC704780B483B000AF7860396000BFBB
S2144007C07B685B6903F00203002BF9D03B68C3F3F8
S2144007D008027B68DA61002318460C37BD4680BCA9
S2144007E07047000090B583B000AF786039600A4C1F
S2144007F07C4408E03B685A1C3A601B781946786887
S214400800064BE35898473B681B78002BF2D100BF55
S2144008100C37BD4690BD00BF802C00006001000034
S21440082080B483B000AF786039607B685B6903F062
S2144008300103002B01D1012306E07B689B69C3F3CB
S21440084008023B681A60002318460C37BD4680BC39
S2144008507047000080B483B000AF78607B68044A7D
S214400860C3F8E42000BF0C37BD4680BC704700BFCD
S2144008700041535580B483B000AF78607B684FF436
S21440088000425A6000BF0C37BD4680BC704700002F
S21440089080B582B000AF7860214B7B447A68072AE7
S2144008A03AD802A151F82220114408476B000000B4
S2144008B0210000002B000000350000003F00000033
S2144008C049000000530000005F0000000020154A69
S2144008D09B58984720E00120124A9B5898471BE0B7
S2144008E00020114A9B58984716E010200E4A9B5805
S2144008F0984711E020200C4A9B5898470CE03E2130
S21440090000200A4A9B58984706E03E210120074AA5
S2144009109B58984700E000BF00BF0837BD4680BDE3
S214400920D62B0000F0000000080000001800000071
S21440093080B582B000AF78601A4B7B447A68072A4D
S2144009402AD802A151F8222011440847210000006D
S2144009502500000025000000390000003900000096
S214400960390000003900000039000000012314E07F
S2144009700D4A9B5898470346002B14BF012300237B
S214400980DBB20AE0094A9B5898470346002B14BF3F
S21440099001230023DBB200E0002318460837BD469B
S2144009A080BD00BF362B000024000000C0000000C1
S2144009B080B483B000AF78607B68072B27D802A24C
S2144009C052F823301A441047210000002700000048
S2144009D02D00000033000000370000003B00000000
S2144009E03F000000430000004FF4FA4310E04FF48D
S2144009F000430DE04FF400430AE0084B08E0084B84
S214400A0006E0084B04E0074B02E0064B00E00023FC
S214400A1018460C37BD4680BC704700BF00093D00F5
S214400A2000127A00001BB70080B582B000AF0346C4
S214400A30FB7100BFFB791846064B7B44984703463C
S214400A4083F00103DBB2002BF4D100BF0837BD466C
S214400A5080BD00BFF3FEFFFF80B586B000AFF860F4
S214400A607A603B600B46FB72FB7A18460F4B7B4422
S214400A70984702467B68B2FBF3F37B617B693A6832
S214400A8002FB03F37B613B68013B1A04064B1340B1
S214400A907A68D2B2134343F47C52FB681A6000BFB4
S214400AA01837BD4680BD00BF0000FF073FFFFFFF71
S214400AB080B582B000AF786039600E4B7B443A68B0
S214400AC0002A09D10C4A9B589847094A7B681B68FC
S214400AD043F00053936206E0084A9B589847044AFE
S214400AE07B681B68D36200BF0837BD4680BD00BF29
S214400AF000040E40B42900002000000068000000FA
S214400B0080B582B000AF7860084B7B447A68002A94
S214400B1004D1074A9B589847034603E0054A9B582A
S214400B209847034618460837BD4680BD66290000EC
S214400B30C40000003801000080B582B000AF034614
S214400B40FB71FB79033B042B0AD8FB791846074B0D
S214400B507B449847FB791846054B7B44984700E012
S214400B6000BF00BF0837BD4680BD00BF3DFDFFFF4C
S214400B70CBFEFFFF80B582B000AF786000BF7868DC
S214400B80054B7B4498470346002BF8D00023184675
S214400B900837BD4680BD00BF7BFFFFFF80B500AF76
S214400BA00620054B7B449847024613469B00134459
S214400BB09B00184680BD00BF09FEFFFF80B500AF12
S214400BC0034B7B44984703465B08184680BD00BFEE
S214400BD0D7FFFFFFB0B582B000AF184C7C44164834
S214400BE0174BE35898470620164B7B449847381DCA
S214400BF0142301220621144D7D44A8473B1D0021A5
S214400C001846124B7B4498470020114B7B4498472C
S214400C101020104BE35898470F4BE35898470F4B1C
S214400C207B44984703461846054BE358984700BF11
S214400C300837BD46B0BD00BF000E27079428000009
S214400C40400000004BFFFFFF5DFEFFFFA9FEFFFFD9
S214400C5065FFFFFF280100003401000099FFFFFFF9
S214400C6080B485B000AFF860B9607A607B68002BCE
S214400C7003D0FB68BA685A6602E0FB68BA681A6630
S214400C8000BF1437BD4680BC704780B485B000AF07
S214400C90F860B9607A60FB68BA68C3F884207B68FD
S214400CA05B004FF40042B2FBF3F3013BC3F30D028B
S214400CB0FB68C3F88C2000BF1437BD4680BC704725
S214400CC080B487B000AFF860B9607A60FB687A6835
S214400CD05A64BB68B3F1C05F4AD0B3F1C05F08D86E
S214400CE0B3F1006F16D0B3F1805F2CD0002B69D0E3
S214400CF064E0B3F1205F65D0B3F1205F03D8B3F171
S214400D00005F4AD05AE0B3F1405F5BD0B3F1605F1A
S214400D1058D053E0FB681B6F7B61FB681A6F7B689B
S214400D20D9437B690B401A40FB681A67FB685B6FC8
S214400D307B61FB685A6F7B68D9437B690B401A40DE
S214400D40FB685A673AE0FB681B6F7B617A687B6991
S214400D501A43FB681A67FB685B6F7B61FB685A6FD8
S214400D607B68D9437B690B401A40FB685A6725E08D
S214400D70FB681B6F7B61FB681A6F7B68D9437B6996
S214400D800B401A40FB681A67FB685B6F7B617A68AA
S214400D907B691A43FB685A6710E0FB681B6F7B61F0
S214400DA07A687B691A43FB681A67FB685B6F7B61EE
S214400DB07A687B691A43FB685A6700BFFB687A68A3
S214400DC05A6000E000BF1C37BD4680BC704700003C
S214400DD090B585B000AFF860B9607A601C4C7C4432
S214400DE0B968F8681B4BE35898477B6803F00103E3
S214400DF01A46B968F868184BE35898477B6803F07A
S214400E000A03002B03D0FB68BA681A6202E0FB684C
S214400E10BA685A627B6803F00203002B04D0FB6872
S214400E20BA68C3F8802008E07B6803F00803002B0C
S214400E3003D0FB68BA68C3F88420FB68BA685A6176
S214400E40FB68BA681A6000BF1437BD4690BD00BF45
S214400E50922600008C0000009000000090B585B0FF
S214400E6000AFF860B9607A603B60154C7C44B96866
S214400E70F868144BE35898473A6AB968F868124BD2
S214400E80E35898473B68002B03D0FB68BA681A655E
S214400E9002E0FB68BA685A657B68002B03D0FB68A3
S214400EA0BA681A6302E0FB68BA685A63FB68BA68B5
S214400EB01A61FB68BA681A6000BF1437BD4690BD19
S214400EC0042600008C0000009000000080B485B02E
S214400ED000AFF860B9607A607B6803F01003002BBF
S214400EE020D0FB68BA68C3F8B0207B6803F02003C4
S214400EF0002B04D0FB68BA68C3F8D42003E0FB6834
S214400F00BA68C3F8D0207B6803F04003002B04D0B7
S214400F10FB68BA68C3F8C02008E0FB68BA68C3F844
S214400F20C42003E0FB68BA68C3F8B42000BF143797
S214400F30BD4680BC704780B483B000AF78603960EF
S214400F407B683A681A6400BF0C37BD4680BC704761
S214400F5080B483B000AF786039607B683A685A6482
S214400F6000BF0C37BD4680BC704780B483B000AF2E
S214400F7078607B68DB6C18460C37BD4680BC704793
S214400F8080B483B000AF78607B689B6C18460C37A3
S214400F90BD4680BC70470000B0B586B002AF7860F2
S214400FA039606B4C7C4478686A4BE3589847F860E5
S214400FB03B6803F0F043B3F1005F6FD0B3F1005FDE
S214400FC009D8B3F1805F2FD0B3F1C05F49D0B3F1F9
S214400FD0006F0CD0B5E0B3F1405F00F08980B3F10C
S214400FE0605F00F08580B3F1205F74D0A9E07B6835
S214400FF003F01F03012202FA03F31A464FF0006182
S214401000F868554BE35898477B6803F01F03012266
S21440101002FA03F319463B6803F001031A46F868E0
S2144010204E4BE35898478EE07B6803F01F0301223F
S21440103002FA03F31A464FF08051F868464BE358DD
S21440104098477B6803F01F03012202FA03F3194610
S2144010503B6803F001031A46F868404BE35898474C
S21440106071E07B6803F01F03012202FA03F31A467D
S2144010704FF0C051F868384BE35898477B6803F008
S2144010801F03012202FA03F319463B6803F00103EB
S2144010901A46F868314BE358984754E07B6803F0AB
S2144010A01F03012202FA03F31A464FF00051F86874
S2144010B0294BE35898477B6803F01F03012202FA46
S2144010C003F319463B6803F001031A46F868234BBE
S2144010D0E358984737E07B6803F01F03012202FA83
S2144010E003F33A681946F8681D4BE35898472AE0D8
S2144010F07B6803F01F03012202FA03F319463B689C
S21440110003F06053B3F1605F0CBF01230023DBB2F2
S2144011101A463B6803F00403002B14BF0123002348
S214401120DBB218463B6803F00103002B14BF0123D3
S2144011300023DBB200930346F8680A4D6459A04783
S21440114001E0002300E0012318461037BD46B0BD3D
S214401150CC2400000400000058000000900000006E
S214401160A80000008000000080B485B000AF786022
S2144011707B685B0903F5001303F207735B02FB60B1
S214401180FB6818461437BD4680BC704780B485B0AF
S21440119000AF78601C491C4B1B6B23F070027B68C9
S2144011A013430B634FF40063FB6007E0FB68002BC0
S2144011B001D1012323E0FB68013BFB60124B9B6E91
S2144011C003F00803002BF1D00F4A0F4B1B6B23F0A4
S2144011D0030343F0020313634FF40063FB6007E02E
S2144011E0FB68002B01D1012309E0FB68013BFB6053
S2144011F0054B9B6E03F00803002BF1D000231846E6
S2144012001437BD4680BC704700040E4080B483B09F
S21440121000AF78607B68012B07D1084A074B9B6874
S21440122043F0254343F480139360044B044A1A600A
S21440123000BF0C37BD4680BC704700BF10140E4040
S214401240080000A580B400AF094B5B6903F080033B
S214401250002B07D0074B9B6E03F08003002B01D07A
S214401260012300E000231846BD4680BC704700BFFF
S21440127010140E4000040E4080B483B000AF786077
S214401280184A184B1B6A43F45C1343F00803136276
S21440129000BF144B9B6E03F40033002BF9D011496A
S2144012A0104B1B6A23F45C1323F070037A681343D5
S2144012B043F45C130B6200BF0A4B9B6E03F400338F
S2144012C0002BF9D0074A074B1B6A23F09B7323F485
S2144012D0803343F45C13136200BF0C37BD4680BCBA
S2144012E0704700BF00040E4080B483B000AF786003
S2144012F039607B68002B08D01649164B1B6A164A85
S2144013001A40164B13430B621EE01249114B1B6AE0
S21440131023F45C1323F003033A68120292B2134399
S21440132043F45C1343F001030B6200BF094B9B6E12
S21440133003F00103002BF9D0064A064B1B6A43F024
S2144013409B7343F48033136200BF0C37BD4680BCAA
S214401350704700BF00040E40FCFFC8FE0200370185
S21440136080B400AF034B9B6E03F480331846BD46F3
S21440137080BC704700040E4080B400AF034B4FF073
S21440138000529A6200BFBD4680BC704700040E40C3
S21440139080B400AF034B9B6E03F002031846BD4675
S2144013A080BC704700040E4080B400AF034B002260
S2144013B0DA6200BFBD4680BC704700BF00040E40E6
S2144013C080B400AF034B9B6E03F004031846BD4643
S2144013D080BC704700040E4080B483B000AF786095
S2144013E07B68222B01D901232FE07B681F2B13D863
S2144013F0184B9A6901217B6801FA03F31A400121D0
S2144014007B6801FA03F39A421ED0124A01217B6898
S21440141001FA03F3136117E07B68203B7B600D4BBA
S214401420D3F8082101217B6801FA03F31A40012111
S2144014307B6801FA03F39A4206D0064A01217B688C
S21440144001FA03F3C2F80031002318460C37BD46B4
S21440145080BC704700040E4080B483B000AF0346A3
S214401460FB71084997F907305B09FA7902F01F02C9
S214401470012000FA02F241F8232000BF0C37BD4697
S21440148080BC704700E100E080B483B000AF786075
S2144014907B68072B27D802A252F823301A441047FD
S2144014A021000000270000002D000000330000004F
S2144014B0370000003B0000003F00000043000000F3
S2144014C04FF4FA4310E04FF400430DE04FF400436E
S2144014D00AE0084B08E0084B06E0084B04E0074BE0
S2144014E002E0064B00E0002318460C37BD4680BCA1
S2144014F0704700BF00093D0000127A00001BB7008D
S21440150080B500AF0620054B7B44984702461346FD
S2144015109B0013449B00184680BD00BF7DFFFFFF25
S21440152080B500AF034B7B44984703465B0818469C
S21440153080BD00BFD7FFFFFF90B583B000AF0E4C15
S2144015407C4400210B480D4BE358984778607B68F5
S21440155003F01003002B08D0094BE3581B78DBB28E
S2144015600133DAB2064BE3581A7000BF0C37BD465B
S21440157090BD00BF00000140301F00003001000059
S21440158054010000B0B586B002AF1E4C7C441E4BE2
S2144015907B449847F86017201C4BE3589847391D02
S2144015A007F10802FB6800930B46F9680120184DC6
S2144015B06559A8477B6843F480431A460021104883
S2144015C0144BE3589847BB68FA68B2FBF3F31A46E5
S2144015D000210B48104BE358984717200F4B7B448D
S2144015E098471022002106480D4BE35898470021A3
S2144015F003480C4BE358984700BF1037BD46B0BD74
S21440160000000140E41E00008DFFFFFFE4000000E4
S214401610840000005C0100000001000077FEFFFF30
S214401620BC0000006C00000080B483B000AF0346EE
S214401630FB71084997F907305B09FA7902F01F02F7
S214401640012000FA02F241F8232000BF0C37BD46C5
S21440165080BC704700E100E080B483B000AF7860A3
S2144016607B68072B27D802A252F823301A4410472B
S21440167021000000270000002D000000330000007D
S214401680370000003B0000003F0000004300000021
S2144016904FF4FA4310E04FF400430DE04FF400439C
S2144016A00AE0084B08E0084B06E0084B04E0074B0E
S2144016B002E0064B00E0002318460C37BD4680BCCF
S2144016C0704700BF00093D0000127A00001BB700BB
S2144016D080B500AF0620054B7B449847024613462C
S2144016E09B0013449B00184680BD00BF7DFFFFFF54
S2144016F080B500AF034B7B44984703465B081846CB
S21440170080BD00BFD7FFFFFF80B500AF034B7B44D3
S214401710984703465B08184680BD00BFBFFFFFFFE3
S21440172080B582B000AF7860044A7A447868044B4B
S214401730D358984700BF0837BD4680BD461D0000B9
S214401740E400000090B583B000AF124C7C441048D3
S214401750114BE358984778607B6803F48053002B1E
S21440176012D00E4BE358194609480D4BE35898479C
S2144017700C4BE35801221A70084BE3581B68DBB247
S2144017801846094BE358984700BF0C37BD4690BDF6
S21440179000400240241D0000000000002800000019
S2144017A0F80000004C0000001801000090B585B01D
S2144017B000AF78603960114C7C44114BE3580122ED
S2144017C01A70104BE35898470023FB6009E00E4B15
S2144017D0E3581A46FB68134400221A70FB6801332C
S2144017E0FB60FB68B3F57A7FF1DB084BE3581A469B
S2144017F00023136000BF1437BD4690BDB81C0000E0
S21440180034000000700000001C000000EC000000E7
S21440181080B483B000AF78603960054A7A44054B9F
S214401820D35801221A7000BF0C37BD4680BC7047A3
S214401830541C000010000000F0B587B000AF274CE5
S2144018407C4424490520264BE358984721490620E6
S214401850234BE35898471F490820214BE3589847A5
S214401860204B7B443D461E460FCE0FC596E80300F0
S21440187085E803001C4B7B44984702461B4B7B4441
S2144018801A600E201A4B7B4498471A4B7B441A68C2
S2144018903B4619461048184BE35898474FF0FF31DF
S2144018A00D48164BE35898470B48154BE358984756
S2144018B00948144BE358984701210748124BE35810
S2144018C098470E20114B7B44984700BF1C37BD46B7
S2144018D0F0BD00BF0100000800400240301C000080
S2144018E044000000861A00008FFEFFFF66ECBF1F14
S2144018F097FEFFFF58ECBF1F3800000014000000A2
S214401900CC000000B4000000480000005FFDFFFF70
S214401910B0B582B002AF104C7C440C200F4BE3585D
S21440192098470F4BE358009379234FF480620C217D
S21440193008480C4D6559A8470C200B4B7B449847EC
S2144019404FF480610348094BE358984700BFBD46B3
S214401950B0BD00BF00100E40581B0000E400000061
S214401960D80000002C000000E9FCFFFF58010000F2
S214401970B0B582B002AF134C7C440B20124BE358F8
S21440198098470A224FF480010D48104BE358984779
S2144019900F4BE358009379234FF480020B210848FD
S2144019A00C4D6559A8470B200B4B7B4498474FF48A
S2144019B080010348094BE358984700BFBD46B0BD79
S2144019C0000E0E40F81A0000E4000000A4000000DC
S2144019D0B00000002C0000007BFCFFFF5801000018
S2144019E080B483B000AF0346FB71094B7B44094A81
S2144019F09A581268511C07481858016006495B58A7
S214401A001946FB798B5400BF0C37BD4680BC7047E7
S214401A10841A0000EC0000001C00000098B500AFDF
S214401A202F4C7C442F4B7B4419462F4BE35818468B
S214401A302E4BE35898470346002B04D02C4BE358D4
S214401A4001221A704AE02B4B7B441946264BE3583A
S214401A501846264BE35898470346002B04D0264B9F
S214401A60E35801221A7039E0244B7B4419461E4B3A
S214401A70E35818461D4BE35898470346002B04D0BE
S214401A801F4BE35801221A7028E01E4B7B44194630
S214401A90154BE3581846154BE35898470346002B1A
S214401AA008D0194BE35801221A70184BE35800220D
S214401AB01A7013E0164B7B4419460B4BE3581846F6
S214401AC00A4BE35898470346002B07D00F4BE35882
S214401AD001221A700C4BE35800221A7000BF98BDC2
S214401AE04E1A0000DA1800001C000000AC0000008F
S214401AF0D4000000C818000010010000AE18000016
S214401B0098000000981800001C01000048010000E2
S214401B107618000090B583B000AF78600B46FB7037
S214401B20114C7C44114BE35800221A70104BE3587A
S214401B3000221A7079680B480E4BE358984705E028
S214401B400B4BE3581B78DBB2002B07D1074BE3580F
S214401B501B78DBB2FA789A42F2D800E000BF0C3726
S214401B60BD4690BD004002404E19000054010000A2
S214401B70340000002C0100002DE9B04F84B000AFC7
S214401B80694D7D44694B7B4419466648684BEB5823
S214401B909847684B7B449847034619464FF00002E7
S214401BA00B461446A0008146484640EA937081465C
S214401BB09B00984643464C465B1844EB0204DB18B1
S214401BC044EB04041946224643F2AF634FF0000448
S214401BD011EB030842EB040940464946564BEB5886
S214401BE01C4643F2B0624FF00003A04703460C4643
S214401BF01846524BEB589847514B7B441946494838
S214401C004B4BEB5898474F4B7B44984703461946F7
S214401C104FF000020B4614464FEA840B4BEA937B88
S214401C204FEA830A53465C465B1844EB0204DB18D3
S214401C3044EB04041946224643F2AF634FF00004D7
S214401C4011EB030842EB0409404649463A4BEB5831
S214401C501C4643F2B0624FF00003A04703460C46D2
S214401C601846364BEB589847374B7B4419462D4819
S214401C702F4BEB589847354B7B44984703461946BD
S214401C804FF000020B461446DB1844EB04045B1886
S214401C9044EB0204E0007860786840EA537078606D
S214401CA0DB003B60D7E900345B1844EB0204DB18EA
S214401CB044EB04041946224643F2AF634FF0000457
S214401CC011EB030842EB0409404649461A4BEB58D1
S214401CD01C4643F2B0624FF00003A04703460C4652
S214401CE01846164BEB589847194BEB589847002325
S214401CF0FB6009E0174BEB581A46FB68134400227A
S214401D001A70FB680133FB60FB68B3F57A7FF1DB42
S214401D10114BEB581A460023136000BF1037BD46E0
S214401D20BDE8B08F00400240EE180000AE1700003D
S214401D302C01000059FBFFFF5C000000080100007A
S214401D4066170000E5FAFFFF0E17000075FAFFFF62
S214401D50700000001C000000EC00000080B582B05F
S214401D6000AF7860044A7A447868044BD358984762
S214401D7000BF0837BD4680BD0A170000E4000000DB
S214401D8080B500AF0B20044B7B4498470C20034B98
S214401D907B44984700BF80BDD1FFFFFFC9FFFFFFD0
S214401DA080B48DB000AF78600B46FB707B68FB62FA
S214401DB0FB7887F82B30FB6A7B627B6A3B623B6A28
S214401DC05B09FB61FB6903F5001303F207735B02D3
S214401DD0BB6197F82B30012B09D1FB6A7B617B698D
S214401DE003F01F0301229A40BB691A610CE097F882
S214401DF02B30002B08D1FB6A3B613B6903F01F0385
S214401E0001229A40BB695A61FB6AFB60FB6803F09B
S214401E101F0301229A40BB69C3F8A02000BF343795
S214401E20BD4680BC704780B48BB000AF78600B4630
S214401E30FB707B687B62FB7887F823307B6AFB61AC
S214401E40FB69BB61BB695B097B617B6903F500137A
S214401E5003F207735B023B6197F82330002B09D0EF
S214401E607B6AFB60FB6803F01F0301229A403B69D4
S214401E701A6308E07B6ABB60BB6803F01F0301225D
S214401E809A403B695A6300BF2C37BD4680BC7047BA
S214401E9080B500AF134B7B44984701212020124B5E
S214401EA07B44984701212020104B7B4498470121D2
S214401EB003200F4B7B449847012102200D4B7B4467
S214401EC0984701211E200C4B7B44984701211B203C
S214401ED00A4B7B44984701211D20094B7B44984779
S214401EE000BF80BDE7FEFFFFFDFEFFFF79FFFFFF5F
S214401EF0E9FEFFFFDFFEFFFFD5FEFFFFCBFEFFFF45
S214401F00C1FEFFFF90B585B000AF2E4C7C442E4BF3
S214401F10E358FB602D4BE358BB60FA68BB689A42B7
S214401F200ED907E0BB681A1DBA60FA68111DF96041
S214401F3012681A60BB68264AA2589342F2D323E03E
S214401F40FA68BB689A421FD2214BE3581A461F4B89
S214401F50E358D31A7B60FA687B681344043BFB6003
S214401F60BA687B681344043BBB600AE0BB681A1F30
S214401F70BA60FA68111FF96012681A607B68043B01
S214401F807B607B68002BF1D100BF124BE358BB60EF
S214401F9004E0BB681A1DBA6000221A60BB680E4A8D
S214401FA0A2589342F5D30D4BE358FB60044AFB68B6
S214401FB093600B4BE35898470A4BE3589847FEE725
S214401FC000ED00E0641500003C00000054000000F6
S214401FD02401000050000000F40000003000000023
S214401FE07C000000E800000080B400AFFEE7000080
S214401FF080B400AF774B7B44704A126B02F003020A
S214402000032A00F2B88002A151F822201144084762
S2144020101100000039000000970000009700000003
S214402020674A526902F08002002A06D06A4A9A58E5
S21440203011464FF400420A609EE0674A9A5811469D
S2144020404FF4FA420A6097E05C4A126A02F08072E5
S214402050002A05D0604A9A5811465A4A0A608BE0D0
S2144020605D4A9A581146584A0A60544A126A02F023
S2144020707002102A0AD0202A0ED0002A00D011E082
S214402080554A9A581146504A0A600BE0524A9A58A6
S21440209011464E4A0A6005E04F4A9A581146494A48
S2144020A00A6000BF68E0454A126A02F08072002A61
S2144020B005D0494A9A581146424A0A6021E0464AA3
S2144020C09A581146404A0A603C4A126A02F0700228
S2144020D0102A0AD0202A0ED0002A00D011E03E4A0C
S2144020E09A581146384A0A600BE03B4A9A581146BD
S2144020F0364A0A6005E0384A9A581146314A0A601C
S21440210000BF2E4A126B02F00302022A19D12B4A54
S214402110926A120CC2F30A0201322F4959580968D2
S21440212001FB02F22C4959580A60244A926AD2B2FC
S214402130294959580968B1FBF2F2274959580A60AB
S2144021401AE01E4AD26A120CC2F30A02013222492F
S2144021505958096801FB02F21F4959580A60174A44
S214402160D26AD2B21C4959580968B1FBF2F21A49F0
S21440217059580A6000E000BF104A126B02F0700225
S214402180702A0AD1144A9A5812681149A1FB0212C1
S214402190520811495B581A600CE0084A126B120943
S2144021A002F007020C495958096821FA02F20A4916
S2144021B05B581A6000BFBD4680BC704700040E40A6
S2144021C010140E40001BB70000093D0000127A00B4
S2144021D0ABAAAAAA7A1400006000000080B483B0BC
S2144021E000AF78607B68184A934204D8174B4FF08C
S2144021F080621A6023E07B68154A934203D8134BEB
S214402200144A1A601BE07B68134A934203D80F4B6C
S214402210124A1A6013E07B68114A934203D80B4B6C
S214402220104A1A600BE07B680F4A934204D8074B6B
S2144022304FF004221A6002E0044B0C4A1A6000BFBA
S2144022400C37BD4680BC7047FF2C3101000A0E405B
S214402250FF59620200010004FF8693030002000457
S214402260FFB3C40400030004FFE0F50500050004C6
S21440227080B483B000AF78607B68072B27D802A273
S21440228052F823301A44104721000000270000006F
S2144022902D00000033000000370000003B00000027
S2144022A03F000000430000004FF4FA4310E04FF4B4
S2144022B000430DE04FF400430AE0084B08E0084BAB
S2144022C006E0084B04E0074B02E0064B00E0002324
S2144022D018460C37BD4680BC704700BF00093D001D
S2144022E000127A00001BB70080B500AF0620054BF1
S2144022F07B449847024613469B0013449B0018466F
S21440230080BD00BF7DFFFFFF80B500AF034B7B4421
S214402310984703465B08184680BD00BFD7FFFFFFBF
S21440232080B48BB000AF78600B46FB707B687B62F6
S214402330FB7887F823307B6AFB61FB69BB61BB692E
S2144023405B097B617B6903F5001303F207735B024D
S2144023503B6197F82330002B09D07B6AFB60FB6813
S21440236003F01F0301229A403B691A6308E07B6A28
S214402370BB60BB6803F01F0301229A403B695A6367
S21440238000BF2C37BD4680BC704780B489B000AFD4
S21440239078607B68FB61FB69BB61BB697B617B697D
S2144023A05B093B613B6903F5001303F207735B026D
S2144023B0DA6BFB69FB60FB6803F01F03012101FA3F
S2144023C003F31340002B14BF01230023DBB218464F
S2144023D02437BD4680BC70472DE9B04F8EB000AF65
S2144023E0954D7D4401237B63944BEB589847914829
S2144023F0934BEB589847934BEB589847924BEB5878
S2144024009847924BEB589847914BEB589847914BCF
S214402410EB5898470521904B7B4418468F4BEB581A
S214402420984705218E4B7B4418468C4BEB58984773
S21440243005218C4B7B441846884BEB589847052122
S214402440894B7B441846854BEB5898470521874B6C
S2144024507B441846814BEB5898470521844B7B4478
S21440246018467E4BEB5898470521824B7B441846CE
S2144024707A4BEB58984705217F4B7B441846774B61
S214402480EB5898477D4BEB581A46002313700021B3
S21440249020207B4B7B4498477A4B7B4498470346A7
S2144024A019464FF000020B461446DB1844EB040472
S2144024B05B1844EB02044FEA441949EAD3694FEAF1
S2144024C0431813EB080344EB09045B1844EB02047F
S2144024D043F2AF614FF0000213EB010844EB0209F0
S2144024E040464946684BEB581C4643F2B0624FF0B4
S2144024F00003A04703460C461846644BEB589847E3
S21440250001212020624B7B449847624B7B4498478E
S214402510034619464FF000020B4614464FEA840B1A
S2144025204BEA937B4FEA830A53465C465B1844EB80
S2144025300204E000F862F86A40EA5370F862DB0092
S214402540BB62D7E90A345B1A64EB02042001786266
S214402550786A40EA137078621B013B62D7E9083418
S2144025605B1844EB02042201FA61FA6942EA1372EC
S214402570FA611B01BB61D7E906341946224643F28D
S214402580AF634FF0000411EB030842EB04094046EA
S21440259049463D4BEB581C4643F2B0624FF00003B1
S2144025A0A04703460C461846384BEB5898473A4BDC
S2144025B0EB5800221A7010E0374BEB581B78DBB212
S2144025C0002B0AD06421354B7B441846234BEB58EE
S2144025D09847314BEB5800221A702B20304B7B44E7
S2144025E09847034683F00103DBB2002BE4D12D4B22
S2144025F0EB5898472C4BEB581B78DBB2002B5FD040
S21440260001210320294B7B44984701210220284B77
S2144026107B44984701211E20264B7B449847012146
S2144026201B20254B7B44984700211D20234B7B4491
S214402630984764E050140E408E100000440100009D
S21440264040010000D0000000880000007800000034
S2144026500C01000004010000700F0000E0000000C4
S2144026607A0F0000800F00008A0F0000980F0000CD
S214402670A20F0000A80F0000AE0F000034000000BC
S21440268089FEFFFF6BFEFFFF5C00000008010000B4
S21440269017FEFFFFF9FDFFFF10000000680E000068
S2144026A0A9FDFFFF9C0000001C01000017FDFFFF76
S2144026B00DFDFFFF03FDFFFFF9FCFFFFEFFCFFFFF3
S2144026C0334BEB581B78DBB2002B18D0002103208D
S2144026D0304B7B449847002102202F4B7B44984741
S2144026E000211E202D4B7B44984700211B202C4B5D
S2144026F07B44984700211D202A4B7B4498472A4B11
S2144027007B449847034619464FF000020B46144652
S21440271060017861786940EAD36078615B013B612B
S214402720D7E904345B1A64EB0204A000F860F8684A
S21440273040EA9370F8609B00BB60D7E902345B18B0
S21440274044EB020422017A607A6842EA13727A60A5
S2144027501B013B60D7E900341946224643F2AF637B
S2144027604FF0000411EB030842EB0409404649468B
S2144027700E4BEB581C4643F2B0624FF00003A047A6
S21440278003460C4618460A4BEB5898472FE700BFBF
S214402790480100004BFCFFFF41FCFFFF37FCFFFFFA
S2144027A02DFCFFFF23FCFFFF05FCFFFF5C00000045
S2144027B00801000053B94AB9002908BF00281CBFC9
S2144027C04FF0FF314FF0FF3000F07AB9ADF1080C12
S2144027D06DE904CE00F006F8DDF804E0DDE90223FA
S2144027E004B070472DE9F0478C460D460446089ED7
S2144027F0002B51D18A4217466DD9B2FA82FEBEF1FD
S214402800000F0BD0CEF1200C01FA0EF520FA0CFC8E
S21440281002FA0EF74CEA050C00FA0EF44FEA174A95
S214402820250CBCFBFAF81FFA87F90AFB18CC45EAD8
S2144028300C4508FB09F3AB420AD9ED1908F1FF3203
S21440284080F02381AB4240F22081A8F102083D444B
S214402850ED1AA4B2B5FBFAF00AFB105544EA05445B
S21440286000FB09F9A14509D9E41900F1FF3380F0CE
S2144028700A81A14540F2078102383C44A4EB090492
S21440288040EA08400021002E61D024FA0EF40023CE
S21440289034607360BDE8F0878B4207D9002E54D071
S2144028A0002186E821000846BDE8F087B3FA83F1A8
S2144028B0002940F08E80AB4202D3824200F2FA807A
S2144028C0841A65EB03050120AC46002E3FD086E80F
S2144028D01010BDE8F08712B90127B7FBF2F7B7FA38
S2144028E087FEBEF1000F34D1EB1B3A0C1FFA87FC73
S2144028F00121B3FBF2F8250C02FB183345EA0345E9
S2144029000CFB08F3AB4207D9ED1908F1FF3002D2B1
S214402910AB4200F2D1808046ED1AA3B2B5FBF2F08E
S21440292002FB105543EA05440CFB00FCA44507D9BE
S214402930E41900F1FF3302D2A44500F2B8801846ED
S214402940A4EB0C0440EA08409DE731463046BDE81B
S214402950F087CEF1200405FA0EF307FA0EF720FAB8
S21440296004F83A0C25FA04F448EA0308B4FBF2F1FA
S2144029704FEA184502FB11441FFA87FC45EA044516
S21440298001FB0CF3AB4200FA0EF409D9ED1901F144
S214402990FF3080F08A80AB4240F2878002393D4467
S2144029A0EB1A1FFA88F5B3FBF2F002FB103345EA48
S2144029B0034500FB0CF3AB4207D9ED1900F1FF3895
S2144029C06FD2AB426DD902383D44EB1A40EA014122
S2144029D08FE7C1F1200722FA07F88B4005FA01F489
S2144029E048EA030320FA07FE4FEA134CFD404EEA3E
S2144029F0040EB5FBFCF94FEA1E440CFB19551FFAB2
S214402A0083F844EA054509FB08F4AC4202FA01F2B1
S214402A1000FA01FA08D9ED1809F1FF3043D2AC426A
S214402A2041D9A9F102091D442D1B1FFA8EFEB5FBA4
S214402A30FCF00CFB10554EEA054400FB08F8A04598
S214402A4007D9E41800F1FF3529D2A04527D9023826
S214402A501C4440EA0940A4EB0804A0FB02894C450C
S214402A60C6464D4615D312D056B1BAEB0E0364EBAC
S214402A70050404FA07F7CB401F43CC403760746028
S214402A800021BDE8F0871846F8E69046E0E6C245E5
S214402A90EAD2B8EB020E69EB03050138E4E72846B4
S214402AA0D7E7404691E78146BEE7014678E70238D9
S214402AB03C4445E7084608E7A8F102083D442BE7B2
S214402AC0704700BF70B50F4E0F4D761BB61018BF3F
S214402AD0002405D0013455F8043B9847A642F9D166
S214402AE00A4E0B4D761B00F0AFFCB61018BF002404
S214402AF006D0013455F8043B9847A642F9D170BD3C
S214402B0070BD00BF54344000543440005C34400034
S214402B10543440002DE9F0414FF0010E7446002534
S214402B204FF0FF362B198B4200EB06070DD23F5D68
S214402B3010F803C0BC452DD21D460124A3EB060E5B
S214402B402B198B4200EB0607F1D34FF00108C2F871
S214402B5000E0444600254FF0FF372B19994200EB22
S214402B60070E0ED91EF804E010F803C0F44518D935
S214402B701D460124A3EB07082B19994200EB070ECC
S214402B80F0D80137701C874224BFC2F80080384610
S214402B90BDE8F0810CD04FF0010E2E4674467544C9
S214402BA0C0E70BD04FF001082F4644464544D4E7D3
S214402BB0744512BF01341D460124B3E7444512BF95
S214402BC001341D460124C8E72DE9F04FADF2144DFF
S214402BD0164605468B461046194603AA1C46FFF77E
S214402BE099FF03AB81460DF20C4243F8044F9342E3
S214402BF0FBD14CB1631E721E04A812F8011F40F8A8
S214402C00213013F1FF33F8D203994A463144304617
S214402C1000F066FA00286FD109F1FF330093F318ED
S214402C208246019323468046544658469A4608EBC9
S214402C300A073A1A0021284400F002FA002856D122
S214402C40002F54D0EB1904AA13F8013C52F8233055
S214402C504BB124B1039A934201D2AAEB02039844A3
S214402C6000243846E3E74C4523460AF1FF3E38BF8A
S214402C704B46734513D208EB030216F803C0A85C14
S214402C8084452A4406EB030106D02CE011F801CF18
S214402C9012F8010F844526D101337345F6D34C45CF
S214402CA0009980F08980009B08EB0302019BA85C9A
S214402CB01B7898422A447FD1019804F1FF3B06E0F6
S214402CC010F801CD12F801EDF44503D119464B1E1C
S214402CD09B45F5D101348C4270D8039C3846A044BD
S214402CE0AAEB0404A3E7C9F101029044B7E7002029
S214402CF00DF2144DBDE8F08FA4EB09034B4538BFE9
S214402D004B46013309F1FF38039306EB0803584658
S214402D104FF0000ACB4699460AEB04073A1A0021C0
S214402D20284400F08DF90028E1D1002FDFD0EB19C0
S214402D3004AA13F8013C52F82330A3BB611E8B450E
S214402D4015D20AEB0B0216F80B3015F802E09E453A
S214402D502A4406EB0B005B4606D027E010F801CF6E
S214402D6012F801EFF44521D101338B42F6D3B8F186
S214402D70FF3F11D00AEB080299F80010AB5C99426D
S214402D802A440FD14B4605E013F8010D12F8011DF9
S214402D90884207D1B342F7D105EB0A000DF2144D35
S214402DA0BDE8F08F039B9A443846B5E7CBF1010265
S214402DB092449A443846AFE749468BE705EB08000D
S214402DC096E700BF0278002A00F001812DE9F04F17
S214402DD091F8008085B04446B8F1000F16D086467C
S214402DE001F1010C012703E013F8014B6CB19C463E
S214402DF0A24214BF002707F001071EF8012F6346C2
S214402E00002AF1D19CF80030FBB917B105B0BDE8F7
S214402E10F08F0E46054641460130ACEB060400F006
S214402E208FF9074688B1012CF0D02819874294BF05
S214402E30C11B01211F2C8B460BD9234632463846F0
S214402E40FFF7C2FE05B0BDE8F08F002005B0BDE834
S214402E50F08F03AA21463046FFF75CFE0399804672
S214402E6002463144304600F03BF9002857D108F17D
S214402E70FF330093F3188146054601935846B24601
S214402E806619321A0021384400F0DAF80028DCD1FE
S214402E90002EDAD0C845434638BF4B469C4212D92E
S214402EA05A191AF80310B85C81423A440AEB030EEA
S214402EB006D02CE01EF8010F12F8011F884226D1DA
S214402EC001339C42F6D1C845009940F28380009B6E
S214402ED0EA18019BB85C1B7898423A447AD101982C
S214402EE009F1FF3B06E010F801CD12F801EDF4457C
S214402EF003D119464B1E5B45F5D109F101098945B9
S214402F0057D8039B30461D44A4EB0309B8E7C8F1E5
S214402F10010215441D444FF000093046B0E7A4EBCB
S214402F200803434538BF4346013308F1FF3903934E
S214402F3006EB090358460025BB469A4667193A1AD7
S214402F400021584400F07CF800287FF47EAF002F24
S214402F503FF47BAF444515D908EB050216F8083018
S214402F601BF8020098425A4406EB0801434606D036
S214402F7023E011F801EF12F8010F86451DD1013309
S214402F809C42F6D1B9F1FF3F12D005EB09029AF800
S214402F9000301BF8021099425A4414D1534605E0BB
S214402FA013F8010D12F8011D88420CD1B342F7D137
S214402FB05F46781905B0BDE8F08FC8F101021544A8
S214402FC01D443846BAE7039B38461D44B6E70B789F
S214402FD013B97047414690E700207047024B13B143
S214402FE0024800F005B8704700000000FD2F400082
S214402FF0002301461A46184600F016B938B50A4C62
S2144030000A4D641BA4100AD004F18043013B05EB33
S2144030108305013C55F804399847002CF9D1BDE8A2
S214403020384000F01BBA00BF6C34400068344000A3
S214403030704700BF704700BF00000000000000005F
S21440304001F0FF01102A2BDB10F0070F08D010F814
S214403050013B013A8B422DD010F0070F42B3F6D118
S214403060F0B441EA012141EA014122F007047FF031
S21440307000070023F0E80256083C85EA010586EA88
S214403080010685FA47F5A3FA87F586FA47F6A5FAC4
S21440309087F68EB9EED1F0BC01F0FF0102F00702D0
S2144030A032B110F8013B013A83EA010313B1F8D17B
S2144030B00020704701387047002D06BF354603385C
S2144030C0073815F0010F07D1013015F4807F02BF95
S2144030D0013015F4C03F0130F0BC0138704700BFE6
S2144030E0032A70B422D940EA01039B0711D0037823
S2144030F00C78A3421DD10A44013105E010F8013F87
S21440310011F8014BA34214D19142F7D1002070BC74
S21440311070470D680668AE420C46034601F104014E
S21440312000F1040008D1043A032AF2D8002ADED17E
S214403130ECE7181B70BC704721461846D7E700BF1F
S214403140C9B2002941D08207F0B467D00378002B7B
S21440315068D0994237D0431C04E013F8010B90B373
S21440316081422FD09A071C46F7D1256841EA0123B1
S21440317043EA034383EA0506A6F10130A5F101328E
S21440318020EA060022EA0502024312F0803F11D1EF
S214403190204650F8046F83EA0607A7F10135A6F1EA
S2144031A0013225EA070522EA06022A4312F0803F4A
S2144031B0EFD00446207818B905E014F8010F10B196
S2144031C08142FAD12046F0BC7047830724D003786A
S2144031D0002BF9D0431C03E002780133002AF3D0D9
S2144031E099071846F8D11968A1F1013222EA01027E
S2144031F012F0803F08D153F8041FA1F1013222EAB1
S214403200010212F0803FF6D01A78184642B110F804
S214403210013F002BFBD170470346E4E70446A4E792
S214403220184670471846CEE72DE9F8432C4D06461B
S214403230286898460F469146FFF7FAFE294B1C68C9
S214403240D4F84831002B3ED05A681F2A1CDC02F1C5
S214403250010E76B103EB82010124C1F88890D3F8C1
S214403260880194402043022EC3F88801C1F80881A3
S21440327023D00232C3F804E0286843F82270FFF7F0
S214403280D9FE0020BDE8F883174B0BB34FF4C87047
S214403290AFF300800346D8B1D4F84821026000213D
S2144032A041600A46C4F848014FF0010EC0F8881144
S2144032B0C0F88C11002EDCD0CCE7D3F88C110C4330
S2144032C0C3F88C41D5E704F5A673C4F84831BBE78C
S2144032D02868FFF7AFFE4FF0FF30BDE8F88300BF29
S2144032E038040020443440000000000000C20100C2
S2144032F0C0000000000800000000000000000000C1
S214403300000000005374617274207472616E7366BC
S214403310657200004E6F6E65000000005B436C6F88
S2144033207365643A20305D0046414C4C0000000016
S2144033304F4B415900000000687474705F676574B5
S214403340202D6F2031382E3139312E3130322E3209
S21440335034373A383030302F66616C6C696E666F41
S2144033600D0A0000687474705F726561645F737400
S2144033706174757320300D0A000000007265616448
S214403380203020313030300D0A0000007365742044
S214403390756172742E666C6F772030206F6E200DCC
S2144033A00A00000073657420627520632072203521
S2144033B0303030200D0A0000736574207379206920
S2144033C0206720776C616E203230200D0A000000A6
S2144033D073657420737920692067206E6574776FF3
S2144033E0726B203138200D0A00000000736574208F
S2144033F073792069206720736F667461702032315C
S214403400200D0A007365742073792063206720318D
S21440341036200D0A0000000073657420776C206E1D
S214403420206F203133200D0A00000000736176655E
S214403430200D0A00736574757020776562200D0A4A
S2144034400000000010000020F8B500BFF8BC08BC23
S2144034509E467047DD2F4000F1004000F8B500BFA3
S210403460F8BC08BC9E467047CD004000FB
S20C40346C78F3FF7F0100000029
S2144034745107400069114000791240005508400049
S214403484E404002037074000E9124000F40400201A
S2144034947913400045124000D804002051024000F1
S2144034A400004000E504002075064000E435400076
S2144034B4DD214000990F40001D074000DC04002039
S2144034C43C04002000000020C10C4000B52740000A
S2144034D40C000020D5064000A91340009903400084
S2144034E41D1A40003901400039184000C52A4000E2
S2144034F45D0E40002504400085154000510F4000F5
S214403504610C4000EC040020D6040020791B4000E7
S214403514510540008B0C4000D10D4000C52D4000A5
S21440352411184000ED064000C5054000DD0340008C
S214403534611340009113400081074000BD064000DF
S214403544911E4000D4040020AD17400005074000FB
S214403554151B4000D9134000D9234000E004002046
S2144035640D12400014090020210840006B0F400053
S214403574B9034000711940000100002011194000B1
S214403584D5040020810F4000E1194000D7040020F4
S2144035949B0740003C0400208D114000E507400096
S2144035A403044000F11F4000C11340006707400079
S2144035B475084000D50B40000A000020C9044000AE
S2144035C4CD0E4000F0040020370F40006103400059
S2084035D4B5074000B2
S2104035D8000000000000000000000000A2
S2144035E4BFF35F8F0138FBD17047010000093D00EF
S2144035F400000000FC02002064030020CC030020EE
S2144036040000000000000000000000000000000071
S2144036140000000000000000000000000000000061
S2144036240000000000000000000000000000000051
S2144036340000000000000000000000000000000041
S2144036440000000000000000000000000000000031
S2144036540000000000000000000000000000000021
S2144036640000000000000000000000000000000011
S2144036740000000000000000000000000000000001
S21440368400000000000000000000000000000000F1
S21440369400000000000000000100000000000000E0
S2144036A40E33CDAB34126DE6ECDE05000B000000A5
S2144036B400000000000000000000000000000000C1
S2144036C400000000000000000000000000000000B1
S2144036D400000000000000000000000000000000A1
S2144036E40000000000000000000000000000000091
S210403A140000000000000000F008002049
S804401F0597
